:100000000C946B000C9488000C9488000C9488006D
:100010000C9488000C9488000C947F040C94880045
:100020000C9488000C9488000C9488000C94880030
:100030000C9488000C9488000C9488000C94880020
:100040000C948D010C9488000C9488000C9488000A
:100050000C9488000C9488000C9488000C94880000
:100060000C9488000C948800BD09BD09BD0988095D
:10007000E009EE09BD09BD098809E009000000009A
:1000800023002600290000000000240027002A0089
:1000900000000000250028002B00040404040404D0
:1000A0000404020202020202030303030303010227
:1000B00004081020408001020408102001020408F6
:1000C00010200000000800020100000304070000E7
:1000D00000000000000011241FBECFEFD8E0DEBFFB
:1000E000CDBF11E0A0E0B1E0E2E4FEE102C0059086
:1000F0000D92AE32B107D9F721E0AEE2B1E001C016
:100100001D92A33CB207E1F70E94D10C0C941F0F83
:100110000C940000E0914701F09148018081811129
:1001200003C08FEF9FEF0CC0E0914701F0914801B1
:100130000580F681E02D0680F781E02D8281938194
:1001400090933E0180933D010895DD24D39496E081
:10015000E92E91E0F92ECEE2D1E00AE011E0F701BC
:1001600021917F0130E0F901EE53FF4F8491F901B5
:10017000E255FF4FB490F901E656FF4FC490CC20F2
:1001800071F081110E94D701EC2DF0E0EE0FFF1FFE
:10019000E458FF4FA591B491EC91EB2181F4D88202
:1001A00061E0F80180810E94000221960F5F1F4FDD
:1001B000F1E0C233DF0799F60E944905C8CF888174
:1001C000882399F360E0F80180810E940002188280
:1001D000ECCFE0913201F0913301E65FFE4F61E038
:1001E00080810E9400020E94790460E08CE090E02F
:1001F0000E94D0070E940606811102C00E94490594
:10020000C0913201D0913301FE01E65FFE4F60E004
:1002100080810E940002CE0101968430910529F070
:10022000909333018093320105C02397D09333011B
:10023000C09332010E944905CCCF00E010E08091CC
:100240003601882309F10FB6F8940F92E091570117
:10025000F0915801C681D781CE0102960E94820496
:1002600080918B01815080938B0180913601815068
:10027000809336010F900FBE8F89988D0E9445089C
:10028000CE010E944508DBCF80916401823010F0DE
:100290000E9449050115110591F20E940000CFCF7F
:1002A0000F931F9361E08DE00E94300261E082E0D5
:1002B0000E94300261E083E00E94300261E084E04D
:1002C0000E94300261E085E00E94300262E088E036
:1002D0000E94300262E089E00E94300262E08AE01F
:1002E0000E94300262E08BE00E94300200E010E0E9
:1002F00021E040E850E06EE071E085EA90E00E9485
:10030000370B22E040E850E065E171E089EE90E0D3
:100310000E94370B1F910F9108951F920F920FB6F5
:100320000F9211242F933F938F939F93AF93BF937B
:100330008091A7019091A801A091A901B091AA0173
:100340003091A60123E0230F2D3720F40196A11D43
:10035000B11D05C026E8230F0296A11DB11D2093F3
:10036000A6018093A7019093A801A093A901B0933F
:10037000AA018091A2019091A301A091A401B09142
:10038000A5010196A11DB11D8093A2019093A30127
:10039000A093A401B093A501BF91AF919F918F91BC
:1003A0003F912F910F900FBE0F901F9018958330A3
:1003B00081F028F4813099F08230A1F008958730DF
:1003C000A9F08830B9F08430D1F4809180008F7D1D
:1003D00003C0809180008F7780938000089584B55A
:1003E0008F7702C084B58F7D84BD08958091B00061
:1003F0008F7703C08091B0008F7D8093B000089507
:100400001F93CF93DF93282F30E0F901EE53FF4F76
:100410008491F901E255FF4FD491F901E656FF4F5F
:10042000C491CC23C9F0162F81110E94D701EC2F63
:10043000F0E0EE0FFF1FE057FF4FA591B4918FB78B
:10044000F894111105C09C91ED2FE095E92302C0AD
:10045000EC91ED2BEC938FBFDF91CF911F9108951D
:10046000CF93DF9390E0FC01E255FF4F2491FC0114
:10047000E656FF4F8491882361F190E0880F991F21
:10048000FC01EA57FF4FC591D491FC01E057FF4FA3
:10049000A591B491611109C09FB7F8948881209506
:1004A00082238883EC912E230BC0623061F49FB7C6
:1004B000F8943881822F809583238883EC912E2BAA
:1004C0002C939FBF06C08FB7F894E8812E2B28830A
:1004D0008FBFDF91CF9108950FB6F8940F9280915E
:1004E0004201909143010F900FBE08950FB6F8940A
:1004F0000F92FC01928D0F900FBE81E0911180E070
:1005000008950F920FB6F8940F921F9211242F9214
:100510003F924F925F926F927F928F929F92AF9293
:10052000BF92CF92DF92EF92FF920F931F932F9380
:100530003F934F935F936F937F938F939F93AF936B
:10054000BF93CF93DF93EF93FF93A0918901B09175
:100550008A010DB60D920EB60D9213BE80913F0129
:100560008111F3C0809142019091430101969093D3
:10057000430180934201009799F520914701309102
:1005800048014091450150914601509348014093E4
:1005900047013093460120934501209144012F5F8C
:1005A00020934401E0914701F091480120812111FD
:1005B00007C02FEF3FEF30933E0120933D0110C065
:1005C000E0914701F09148010580F681E02D068019
:1005D000F781E02D2281338130933E0120933D014C
:1005E00020913D0130913E018217930710F420E0E5
:1005F0009CC020E019E0E0914701F0914801308172
:10060000311107C08FEF9FEF90933E0180933D0122
:100610008CC0E0914701F09148010580F681E02D02
:100620000680F781E02D428153818417950728F4D5
:1006300050933E0140933D0178C0AF014E5F5F4F44
:10064000A285B38564817581E680F780EB01FD8228
:10065000EC82C681D7817B836A8311966D917C91F0
:1006600012976417750721F41296DC93CE931197B5
:10067000138612863C9131503C933C91A489B589F4
:100680001097F9F066857785E088F188EB01FD82A7
:10069000EC82C089D1897B836A831196ED90FC90AE
:1006A0001297BF01645F7F4FE616F70621F412969A
:1006B000DC93CE931197158A148A3C9131503C9368
:1006C0003C91A689309188013A1710F4A0938801D3
:1006D0001A9FD0011124BD016C597E4F7B01DB01B3
:1006E0001196CD91DC911297D583C4836C817D8165
:1006F000778366836C817D81DB0113965C934E93D7
:1007000012975D834C83F386E286E70138813F5F71
:100710003883A0918901B0918A01468956963C910F
:10072000431708F468CF21E066CFE0918901F0918A
:100730008A01E689D9E0ED9FF0011124EC59FE4FC2
:100740008081823040F021E006C0809134018F5FCB
:100750008093340120E080913501811103C0222370
:1007600009F466C080913F01882321F081E08093E5
:1007700035015EC010923501A0918901B0918A01C6
:10078000E0918901F0918A012D913C918789908DAA
:1007900082179307A8F08091890190918A01809136
:1007A000890190918A01259A2D9A2FEF67EA71E6C7
:1007B000215060407040E1F700C000001D9AF5CF65
:1007C0008091880169E001C08150482F50E0649F0A
:1007D0009001659F300D1124F901EC59FE4F908175
:1007E000992391F3A181B28112960D90BC91A02D15
:1007F000B283A18329593E4FA217B30731F4129651
:100800002D913C9113973283218399E0949FF001BD
:10081000959FF00D1124EC59FE4F0180F281E02DDF
:100820002681378130938A01209389018093880142
:10083000A0918901B0918A01CD91CDBFDD91DEBF3C
:10084000FF91EF91DF91CF91BF91AF919F918F91E8
:100850007F916F915F914F913F912F911F910F91D8
:10086000FF90EF90DF90CF90BF90AF909F908F90D0
:100870007F906F905F904F903F902F901F900F90C0
:100880000FBE0F900895FC01DB010FB6F8940F9294
:100890004091420150914301818192812D913C917F
:1008A00011972F3F6FEF3607F1F07091440160818F
:1008B000761719F048175907C0F4481B590B42170F
:1008C000530770F4241B350B2D933C938091440106
:1008D000808380914201909143019283818303C080
:1008E0001D921C9202C080E001C081E00F900FBEFB
:1008F000089580913F018F5F80933F0108950E948A
:1009000081021895CF93DF93FC01A085B185828188
:10091000938124813581EC013D832C83C481D58171
:100920009B838A8311968D919C9112978E179F07B6
:1009300021F41296DC93CE931197118610868C9138
:1009400081508C938C91DF91CF910895CF93DF9359
:100950009C01FB01DC011196CD91DC911297D383B0
:10096000C2838C819D81958384838C819D81DC01F0
:1009700013967C936E9312977D836C8331872087C7
:10098000F90180818F5F8083DF91CF9108950F936C
:100990001F93CF93DF93DC011596ED91FC91169791
:1009A000C681D7818E01045F1F4FC8010E94820457
:1009B00080913F01811114C00A501109C8010E94A1
:1009C00082049E8980918801891710F49093880190
:1009D000B9E09B9FC0011124B8018C599E4F03C000
:1009E000B8018BE591E00E94A604E0918901F091A5
:1009F0008A019E898689891720F481E080933501D8
:100A000001C080E0DF91CF911F910F910895EF9287
:100A1000FF920F931F93CF93DF93EC010FB6F894DF
:100A20000F921E8D7C0181E1E80EF11C01E0111690
:100A30005CF48989882341F0C7010E94C7048111B1
:100A4000009335011150F3CF8FEF8E8F0F900FBEB3
:100A50000FB6F8940F921D8D7E0188E0E80EF11C10
:100A600001E011165CF48885882341F0C7010E94DB
:100A7000C7048111009335011150F3CF8FEF8D8F93
:100A80000F900FBEDF91CF911F910F91FF90EF90CC
:100A900008950F920FB6F8940F921F9211242F927F
:100AA0003F924F925F926F927F928F929F92AF92FE
:100AB000BF92CF92DF92EF92FF920F931F932F93EB
:100AC0003F934F935F936F937F938F939F93AF93D6
:100AD000BF93CF93DF93EF93FF93A0918901B091E0
:100AE0008A010DB60D920EB60D9280913F018823BA
:100AF00021F081E0809335015EC010923501A09114
:100B00008901B0918A01E0918901F0918A012D91CA
:100B10003C918789908D82179307A8F08091890175
:100B200090918A018091890190918A01259A2D9A4C
:100B30002FEF87EA91E6215080409040E1F700C016
:100B400000001D9AF5CF8091880169E001C08150B5
:100B5000482F50E0649F9001659F300D1124F901EA
:100B6000EC59FE4F9081992391F3A181B2811296A5
:100B70000D90BC91A02DB283A18329593E4FA2179D
:100B8000B30731F412962D913C9113973283218350
:100B900099E0949FF001959FF00D1124EC59FE4FC0
:100BA0000180F281E02D2681378130938A012093E4
:100BB000890180938801A0918901B0918A01CD912A
:100BC000CDBFDD91DEBFFF91EF91DF91CF91BF915E
:100BD000AF919F918F917F916F915F914F913F91D5
:100BE0002F911F910F91FF90EF90DF90CF90BF90CA
:100BF000AF909F908F907F906F905F904F903F90BD
:100C00002F901F900F900FBE0F9008958F929F927C
:100C1000AF92BF92CF92DF92EF92FF920F931F930A
:100C2000CF93DF930FB6F8940F9280913F018150DC
:100C300080933F0180913F01882311F080E0F2C052
:100C400080918B018823D1F3C0E0D0E029E0F22E1F
:100C5000EE24E39480915B01882351F1E0916001DF
:100C6000F0916101C681D781CE010C960E94820469
:100C70008E010E5F1F4FC8010E9482049E898091E1
:100C80008801891710F490938801F99EC0011124FE
:100C9000B8018C599E4F0E94A604E0918901F09101
:100CA0008A019E8986899817A8F2E0923501D2CFF1
:100CB000CD2B11F00E948A00E0903401EE2009F45F
:100CC000A9C089E0B82EAA24A394CC24CA94DC2C11
:100CD00080913F0181118CC0C0914201D0914301AC
:100CE0002196D0934301C09342012097B9F480919B
:100CF0004701909148012091450130914601309380
:100D000048012093470190934601809345018091CB
:100D100044018F5F809344010E948A0080913D01CD
:100D200090913E01F12CC817D90708F451C0E09109
:100D30004701F09148018081811105C0D0923E01A8
:100D4000C0923D0145C0E0914701F0914801058006
:100D5000F681E02D06811781D80112968D919C9124
:100D60001397C817D90728F490933E0180933D014B
:100D70002FC04801B2E08B0E911CC4010E94820476
:100D8000F80184899589892B21F0C8010C960E946D
:100D90008204D80156968C9190918801981710F48E
:100DA00080938801B89EC0011124B4018C599E4FD4
:100DB0000E94A604E0918901F0918A01D80156961B
:100DC0009C918689981708F4B2CFFF24F394AFCF93
:100DD000E0918901F0918A01E689BE9EF00111241B
:100DE000EC59FE4F8081823048F0FF24F39406C016
:100DF000809134018F5F80933401F12C8091350113
:100E0000811101C0F110A0923501EA94E11060CF88
:100E10001092340180913501882309F40FCF0E948C
:100E2000490581E00F900FBEDF91CF911F910F9187
:100E3000FF90EF90DF90CF90BF90AF909F908F90FA
:100E400008950F931F93CF93DF938C01FB01808153
:100E500091818F3F2FEF920721F4E801AF81B88590
:100E60000EC0D801139612962D913C911397E9016B
:100E7000488159818417950710F0D901F4CF129653
:100E80008D919C91139793838283EC01FD83EC8376
:100E9000B583A4831396FC93EE9312971187008772
:100EA000F80180818F5F8083DF91CF911F910F9137
:100EB0000895EF92FF920F931F93CF93DF93E091EA
:100EC0003B01F0913C018081882369F10580F68126
:100ED000E02D00811181C681D7817E0182E0E80E7C
:100EE000F11CC7010E948204E989FA89CE010995A3
:100EF0008E85813021F72C853D85200F311F02170B
:100F0000130760F43B832A83D987C887B701809190
:100F10003B0190913C010E942107D1CFB801CE0145
:100F20000E94A80CCCCF8091390190913A01909306
:100F30003C0180933B01F0933A01E0933901DF914A
:100F4000CF911F910F91FF90EF900895FC01738353
:100F50006283918780874617570778F0421B530BAF
:100F60008485958548175907C8F4BF016E5F7F4F88
:100F70008091390190913A010DC04217530718F43E
:100F80006217730758F4BF016E5F7F4F80913B017A
:100F900090913C010E94210780E0089581E008952E
:100FA000EF92FF920F931F93CF93DF931F92CDB7D2
:100FB000DEB77C01009142011091430180918901CB
:100FC00090918A01029669830E94820469818FEF61
:100FD000E816F80699F4662389F06091890170910A
:100FE0008A016E5F7F4F89E491E00F90DF91CF918E
:100FF0001F910F91FF90EF900C94A604E00EF11E4C
:10100000E0918901F0918A01F382E2826091890185
:1010100070918A01E016F10678F480914501909173
:1010200046016E5F7F4F0F90DF91CF911F910F911F
:10103000FF90EF900C942107809147019091480117
:101040006E5F7F4F0E94210780913D0190913E018C
:10105000E816F90620F4F0923E01E0923D010F906F
:10106000DF91CF911F910F91FF90EF900895FC01B8
:101070000396928381832FEF3FEF348323839683FC
:1010800085839087878310820895CF93DF9300979D
:1010900051F0EC010E947904CE010E94770EDF919D
:1010A000CF910C940606DF91CF910895CF93DF93F3
:1010B000CDB7DEB72C970FB6F894DEBF0FBECDBF0D
:1010C000E0913B01F0913C018081FF24F39488235F
:1010D00039F0F12C0580F681E02D0081118102C0EC
:1010E00000E010E00E9479040E946C026C01809183
:1010F000370190913801C816D90620F40E9459078B
:1011000081E001C080E0D0923801C09237018111A6
:1011100075C0F11031C0C016D106B0F10E940606AC
:10112000E0913B01F0913C010580F681E02DE680E5
:10113000F780C70102960E948204D7011E968C9107
:101140001E97813089F41C966D917C911D97600FDC
:10115000711F9801A601C7010E94A607882321F0EC
:10116000B801C7010E94A80CD7015196ED91FC91DE
:101170005297C7010995CCC0E0913901F0913A012D
:101180008081BB24B3948111B12CE0904001F09098
:1011900041010FB6F8940F92F701858D8F3F09F446
:1011A000158ED7015E968C915E978F3F11F45E96F7
:1011B0001C920F900FBEF701828D811115C06091B6
:1011C000890170918A01645F7F4FC70141960E9437
:1011D000A604B11004C0C8018C199D0902C08FEF8C
:1011E0009FEF6B2D0E94D007C7010E9407050E9448
:1011F000060681118DC00E9449058AC00E9406061C
:1012000087C0911109C0809144018E838091420171
:101210009091430198878F830F900FBE0E947904AD
:101220000FB6F8940F92D8015D968C915D978F3F21
:1012300011F45D961C92F801868D8F3F09F4168E8D
:101240000F900FBEBE01675F7F4FCE0106960E94D2
:1012500043048111D8C0C8010E947602882309F492
:10126000CCC0E984FA846091890170918A01645F3D
:101270007F4FC6010E94210761E0C7010E94D0078D
:10128000C8010E9407050E940606882309F4B2C01F
:1012900091E00FB6F8940F92F801F28CFF2009F458
:1012A000A1C0448D411140C0FA94F801F28E8085AE
:1012B000811154C00F900FBEC980C7FC29C00C819A
:1012C0001D81D8011A968D919C911B97892B21F035
:1012D000C80102960E9482040E946C02AC018091B7
:1012E0003701909138014817590730F44B875C87D4
:1012F0000E9459075C854B85509338014093370114
:101300008C2DCC0C990BAA0BBB0B8A30910580F16C
:1013100000914001109141011A86198690E0680100
:10132000B1E1CB0ED11CB5CF50E086819781840FFF
:10133000951F97838683228133818217930720F03C
:101340008081918197838683D80116966D917C91D7
:101350001797CE0101960E940F0FA6CFC8010896DD
:101360000E94C704882309F4A5CF0E944905A2CF93
:10137000FC01EC5CFF4F0C94DC0DEA80FB80F80173
:10138000648575856E0D7F1D9701C8010E94A607B3
:10139000882309F4BDCFD8015196ED91FC91529765
:1013A000C8010995F8018685813009F0B1CF84859F
:1013B0009585B701680F791FC8010E94A80CA8CFB6
:1013C0006A817B81D8011D967C936E931C97640F74
:1013D000751F9A01C8010E94A6079ACFC8010E94F2
:1013E000450896CF29853A85232B09F00ACF0F901F
:1013F0000FBE66CE0E9449054BCFC8010E9407056B
:101400000E94060645CFC8010E9407050E940606F5
:10141000C8010E947602882309F43ACF51CE0F9377
:101420001F93CF93DF9300D0CDB7DEB789839A8324
:101430000E94790489819A810E94E20D8C010E94A8
:1014400006060115110569F4259A2D9A2FEF80E7FC
:1014500092E0215080409040E1F700C000001D9ACA
:10146000F5CFC8010F900F90DF91CF911F910F9191
:101470000895AF92BF92CF92DF92EF92FF920F93B7
:101480001F93CF93DF9300D000D01F92CDB7DEB76C
:101490008C017B011D821C8290E0580188E0A80E1F
:1014A000B11C0FB6F8940F92F801228D838D281786
:1014B00008F06DC0D28C448D41113FC08081918174
:1014C000892B09F052C0F801E280F380E114F104A5
:1014D00011F480E02EC0F70182A1815082A32689F9
:1014E00091A12917B1F38111F4CF5701F2E0AF0EAA
:1014F000B11CC5010E948204F70191A1968B492F6E
:1015000050E024E030E0241B350B358724878091A0
:101510008801891710F49093880129E0249FC00165
:10152000259F900D1124B5018C599E4F0E94A60451
:1015300081E0F8011382128219C050E0B701F8016E
:10154000848195810E940F0FF801248D84819581FB
:10155000820F911D958384832281338182179307A3
:1015600020F0808191819583848380E0D394F80179
:10157000D28E9189992321F0C80141960E94C70417
:1015800081110E9449050F900FBE81E060C02C813F
:101590003D81232B19F40F900FBE58C0911109C043
:1015A00080914401898380914201909143019B8302
:1015B0008A830F900FBE0E9479040FB6F8940F92A1
:1015C000F801858D8F3F09F4158EF801868D8F3FC8
:1015D00009F4168E0F900FBEBE016C5F7F4FCE01D7
:1015E00001960E94430481112CC00FB6F8940F920B
:1015F000F801928D838D0F900FBE98131CC0CC8084
:10160000DD802091890130918A01B901645F7F4FAB
:10161000C5010E94210761E0C6010E94D007C801F0
:101620000E9407050E940606882311F091E039CF39
:101630000E944905FBCFC8010E9407050E940606CB
:10164000F5CFC8010E9407050E94060680E00F90B2
:101650000F900F900F900F90DF91CF911F910F91EE
:10166000FF90EF90DF90CF90BF90AF9008957F9262
:101670008F929F92AF92BF92CF92DF92EF92FF92A2
:101680000F931F93CF93DF93982EC92E762E872E1C
:10169000EA01D22ECA010E940F0A5C01892B09F4CB
:1016A00048C188E290E00E940F0A7C010097D9F0BF
:1016B000DC015896BC92AE925797AE0165EA70E095
:1016C000C5010E94180F2197D7015796ED91FC9103
:1016D0005897EC0FFD1FB701675E7F4FA72DB82D00
:1016E000CD01089607C0C5010E94450822C1A81770
:1016F000B90749F09D014D91EB014993BE01E90104
:1017000028812111F4CFD70190961C922D2D2430E1
:1017100008F023E0E7012E8B29A31AA21B861A8664
:101720001D8A1C8AF986E88684E090E0821B910974
:101730009D878C87FB8AEA8A1BA21CA21DA21EA27F
:101740001FA291E19083DF01119782E28C931197A0
:1017500023E32C9311979C921197CC9211971C9292
:10176000119720E82C9311971C92119722E02C934B
:10177000119723E02C93119724E02C93119725E0E7
:101780002C93119726E02C93119727E02C93119717
:1017900028E02C93119729E02C93119720E12C93AA
:1017A00011979C93119792E19C93119793E19C93CD
:1017B000119794E19C93119795E19C93119796E171
:1017C0009C93119797E19C93119798E19C931197A3
:1017D00099E19C93119790E29C93119791E29C93CD
:1017E00011978C93119783E28C9311971C92119708
:1017F0001C92119786E28C93119787E28C93119734
:1018000088E28C93119789E28C93119780E38C93F3
:10181000119781E38C93B697F983E883011511053D
:1018200019F0F801F182E0820FB6F8940F928091DE
:101830008B018F5F80938B018091890190918A0148
:10184000892BD1F5F0928A01E092890180918B0178
:10185000813009F043C084E691E00E9437088DE6AC
:1018600091E00E94370886E791E00E9437088FE7F1
:1018700091E00E94370884EB91E00E9437088BEAE0
:1018800091E00E9437088BE591E00E94370882E5DD
:1018900091E00E94370889E491E00E94370884EBC8
:1018A00091E090934801809347018BEA91E09093F7
:1018B00046018093450112C08091BE0181110EC086
:1018C000E0918901F0918A019689D70156968C9111
:1018D000891720F0F0928A01E09289018091BD0180
:1018E0008F5F8093BD01E7018E89909188019817E1
:1018F00010F480938801D9E08D9FC0011124B701B5
:101900006E5F7F4F8C599E4F0E94A6040F900FBEB2
:101910008091BE01882359F0E0918901F0918A01FC
:101920009689F7018689981710F40E94490581E08D
:1019300001C08FEFDF91CF911F910F91FF90EF903A
:10194000DF90CF90BF90AF909F908F907F90089541
:10195000CF93DF9300D000D01F92CDB7DEB79C01AC
:101960008091400190914101009761F019827B8341
:101970006A833D832C832091BE01222329F020918C
:101980003F0102C080E005C0BE016F5F7F4F0E9433
:10199000390A0F900F900F900F900F90DF91CF9119
:1019A0000895789484B5826084BD84B5816084BDD7
:1019B00085B5826085BD85B5816085BD80916E00ED
:1019C000816080936E00109281008091810082601E
:1019D000809381008091810081608093810080915B
:1019E00080008160809380008091B100846080934A
:1019F000B1008091B00081608093B00080917A0046
:101A0000846080937A0080917A00826080937A006B
:101A100080917A00816080937A0080917A0080685A
:101A200080937A001092C1000E94500100EA11E0F8
:101A300020E040EC50E060E271E08DE191E00E9436
:101A4000370B813009F0AFC00FB6F8940F92809138
:101A5000400190914101892B09F04BC085E991E04B
:101A60000E9437088CE891E00E94370885E991E0F0
:101A700090933C0180933B018CE891E090933A0174
:101A80008093390181E590E00E940F0AEC010097F4
:101A900061F14F96998388838AE08B8F85E08C8FE4
:101AA0000FB6F8940F92288139819B8D4C8D949FAD
:101AB000C0011124B901680F791F7B836A831A8ED4
:101AC0003D832C83841B9109820F931F9F838E83F8
:101AD0008FEF8D8F8E8FCE0108960E943708CE0132
:101AE00041960E9437080F900FBED0934101C093DA
:101AF00040010F900FBE8091400190914101892BD0
:101B000009F451C00EE911E023E045E550E065E23B
:101B100071E086E598E00E94370B813009F043C000
:101B2000F8942FEF3FEF30933E0120933D018093D7
:101B3000BE011092430110924201A89590EC88E1F9
:101B40000FB6F894A895809360000FBE9093600044
:101B5000A0918901B0918A01CD91CDBFDD91DEBF09
:101B6000FF91EF91DF91CF91BF91AF919F918F91B5
:101B70007F916F915F914F913F912F911F910F91A5
:101B8000FF90EF90DF90CF90BF90AF909F908F909D
:101B90007F906F905F904F903F902F901F900F908D
:101BA0000FBE0F9008950E945001C0E0D0E0209732
:101BB000F1F30E940000FBCFEE0FFF1F0590F491A0
:101BC000E02D0994CF93DF938230910510F482E0E9
:101BD00090E0E091C101F091C20120E030E0C0E06E
:101BE000D0E0309711F14081518148175907C0F07A
:101BF0004817590761F482819381209719F09B83DC
:101C00008A832BC09093C2018093C10126C0211505
:101C1000310519F04217530718F49A01BE01DF018C
:101C2000EF010280F381E02DDCCF2115310509F1B0
:101C3000281B390B2430310590F412968D919C911C
:101C400013976115710521F0FB019383828304C012
:101C50009093C2018093C101FD01329644C0FD0101
:101C6000E20FF31F81939193225031092D933C93FE
:101C70003AC02091BF013091C001232B41F4209143
:101C80000201309103013093C0012093BF012091E4
:101C90000001309101012115310541F42DB73EB706
:101CA0004091040150910501241B350BE091BF01C7
:101CB000F091C001E217F307A0F42E1B3F0B281789
:101CC000390778F0AC014E5F5F4F2417350748F0B5
:101CD0004E0F5F1F5093C0014093BF0181939193BA
:101CE00002C0E0E0F0E0CF01DF91CF9108950F93C3
:101CF0001F93CF93DF93009709F48CC0FC013297B8
:101D0000138212820091C1011091C20101151105C7
:101D100081F420813181820F931F2091BF01309186
:101D2000C0012817390779F5F093C001E093BF018E
:101D300071C0D80140E050E0AE17BF0750F41296D2
:101D40002D913C911397AD012115310509F1D90170
:101D5000F3CF9D01DA013383228360817181860F85
:101D6000971F8217930769F4EC0128813981260FA8
:101D7000371F2E5F3F4F318320838A819B8193835E
:101D80008283452B29F4F093C201E093C10142C044
:101D90001396FC93EE931297ED01499159919E0190
:101DA000240F351FE217F30771F480819181840FAE
:101DB000951F029611969C938E9382819381139620
:101DC0009C938E931297E0E0F0E0D80112968D91EB
:101DD0009C911397009719F0F8018C01F6CF8D9123
:101DE0009C9198012E5F3F4F820F931F2091BF015E
:101DF0003091C0012817390769F4309729F41092FF
:101E0000C2011092C10102C0138212821093C0015C
:101E10000093BF01DF91CF911F910F910895FB01B6
:101E2000DC0102C001900D9241505040D8F7089556
:101E3000DC0101C06D9341505040E0F70895F894E3
:021E4000FFCFD2
:101E42000000C301800008090A0B0203040543686D
:101E520061766573005069736361724C65647300E7
:0E1E620049444C4500546D72205376630000D5
:00000001FF
