:100000000C946C000C9489000C9489000C94890069
:100010000C9489000C9489000C94E2070C9411054F
:100020000C9489000C9489000C9489000C9489002C
:100030000C9489000C9489000C9489000C9489001C
:100040000C946E040C9489000C9489000C94890023
:100050000C9489000C9489000C9489000C948900FC
:100060000C9489000C9489003C0D3C0D3C0D070D4F
:100070005F0D6D0D3C0D3C0D070D5F0D0000000088
:1000800023002600290000000000240027002A0089
:1000900000000000250028002B00040404040404D0
:1000A0000404020202020202030303030303010227
:1000B00004081020408001020408102001020408F6
:1000C00010200000000800020100000304070000E7
:1000D000000000000000020011241FBECFEFD8E096
:1000E000DEBFCDBF11E0A0E0B1E0E6EFF5E202C077
:1000F00005900D92AC3DB107D9F722E0ACEDB1E02F
:1001000001C01D92AA38B207E1F70E9450100C946A
:10011000F9120C940000E0910E02F0910F02808120
:10012000811103C08FEF9FEF0CC0E0910E02F091A0
:100130000F020580F681E02D0680F781E02D828197
:100140009381909305028093040208958091F201B7
:100150009091F301009731F42091F0013091F10179
:10016000232BA9F4FC01E556FE4F61E080810E943B
:10017000E1048CE090E00E949A0BE091F201F09192
:10018000F301E556FE4F60E080810E94E10480911A
:10019000F2019091F3019C012F5F3F4F2430310514
:1001A00029F03093F3012093F20105C00397909357
:1001B000F3018093F20181E090E00E949A0BC6CF98
:1001C0008091F0019091F1018230910589F461E014
:1001D00082E00E94E10486E090E00E949A0B60E0D9
:1001E00082E00E94E10486E090E00E949A0B06C043
:1001F000019721F461E082E00E94E10481E090E057
:100200000E949A0BDDCFBB24B39497E9C92E91E0ED
:10021000D92ECCEED1E02BE9E22E21E0F22E00E047
:1002200010E0F60121916F0130E0F901EE53FF4F2C
:100230008491F901E255FF4F9490F901E656FF4F82
:10024000A490AA2071F081110E94B804EA2DF0E078
:10025000EE0FFF1FE458FF4FA591B491EC919E2241
:10026000A1F4B88261E0F70180810E94E1040F5F90
:100270001F4F2196FFEFEF1AFF0A0430110589F690
:1002800081E090E00E949A0BC0CF8881882379F3A7
:1002900001151105B9F48091F0019091F1010196D9
:1002A000833091052CF01092F1011092F00104C0FE
:1002B0009093F1018093F0018091F0019091F10110
:1002C000019729F060E0F70180810E94E104188223
:1002D000CECFCF93DF9300D000D01F92CDB7DEB743
:1002E00085EB282E80E0382E8091EA019091EB0179
:1002F000FC01EE0FFF1FEE0FFF1FE95CFE4F408079
:10030000518062807380880F991FFC01E95FFE4F66
:100310000081118180910001873029F4E6EDF0E041
:10032000F491FD8378C08F3F09F0C6C187E08093C8
:100330000001E6EDF0E084918F3F09F4BDC181300A
:1003400011F1823009F442C0811164C014BC15BCA3
:1003500084B5826084BD85B5816085BDE1EAF0E049
:100360008491E82FF0E0EE0FFF1FE057FF4F8591DB
:1003700094919093E1018093E001F1018491809345
:10038000DF011D824BC0109280001092810080918D
:1003900081008860809381008091810081608093DA
:1003A0008100E1EAF0E08491E82FF0E0EE0FFF1F1A
:1003B000E057FF4F859194919093DE018093DD018A
:1003C000F10184918093DC01F1E022C01092B00031
:1003D0001092B1008091B00082608093B000809153
:1003E000B10081608093B100E1EAF0E08491E82FF0
:1003F000F0E0EE0FFF1FE057FF4F8591949190932F
:10040000FA018093F901F10184918093FB01F2E0FC
:10041000FD8304C08D832D8127FD4EC161E087E0FF
:100420000E9493054801A12CB12C8D818D7F09F08C
:10043000BDC060E072E18AE790E0A50194010E94EE
:100440007D1129833A834B835C8369017A0181E0C2
:10045000C81AD108E108F1089FEFC916D104E104D8
:10046000F10409F008F44DC060E472E48FE090E01C
:10047000A50194010E947D1169017A01E1E0CE1A83
:10048000D108E108F108FD81F23001F52FEFC21625
:10049000D104E104F10409F008F498C160E970EDB9
:1004A00083E090E0A50194010E947D1169017A0129
:1004B00081E0C81AD108E108F1089FEFC916D104FC
:1004C000E104F10409F0E0F583E069C0EFEFCE1636
:1004D000D104E104F104B9F0B0F068E478EE81E011
:1004E00090E0A50194010E947D1169017A01F1E07B
:1004F000CF1AD108E108F1082D81222309F444C163
:100500003AC181E001C082E02D812223A1F047C0E1
:1005100089819A81AB81BC812AE0B595A795979591
:1005200087952A95D1F76C017D0121E0C21AD10887
:10053000E108F10885E095B5987F892B85BD6FC0EE
:1005400068E478EE81E090E0A50194010E947D11BD
:1005500069017A0191E0C91AD108E108F108EFEFC9
:10056000CE16D104E104F10409F008F4D2C064E22B
:1005700074EF80E090E0A50194010E947D11690173
:100580007A0181E0C81AD108E108F1089FEFC91685
:10059000D104E104F10411F008F0BDC085E09091B0
:1005A000B100987F892B8093B10039C060E072E17F
:1005B0008AE790E0A50194010E947D1169017A010A
:1005C00081E0C81AD108E108F108C114D10491E012
:1005D000E906F10488F068E478EE81E090E0A50196
:1005E00094010E947D1169017A01E1E0CE1AD108DF
:1005F000E108F10893E001C091E0FD81F13079F468
:1006000080918100887F892B80938100411451045F
:100610006104710449F42FEF3FEFA9012CC041148C
:1006200051046104710471F0D801AA0FBB1FA3012A
:1006300092010E94A21128EE33E040E050E00E94B7
:100640005B1103C02FEF3FEFA9018D81813099F03D
:10065000823019F1811130C0C7BC2093E60130937C
:10066000E7014093E8015093E90180916E008260B8
:1006700080936E0021C0D0928900C09288002093A0
:10068000E2013093E3014093E4015093E50180914E
:100690006F00826080936F000FC0C092B300209300
:1006A000FC013093FD014093FE015093FF018091C6
:1006B0007000826080937000E091EA01F091EB019C
:1006C000EE0FFF1FEE0FFF1FE95CFE4F808191814F
:1006D000A281B38144E0B695A795979587954A95F1
:1006E000D1F70E949A0B8091EA019091EB0101965B
:1006F0008831910529F09093EB018093EA0104C0C1
:100700001092EB011092EA0181E090E00E949A0BB6
:10071000EBCD84E044CF62E17AE780E090E0A50190
:1007200094010E947D1169017A01F1E0CF1AD1088C
:10073000E108F1082FEFC216D104E104F104C9F079
:10074000C0F089819A81AB81BC816AE0B595A7959B
:10075000979587956A95D1F76C017D01E1E0CE1AF6
:10076000D108E108F108FD81FF2309F4E3CE87E019
:1007700016CF86E0C9CE8FEFC816D104E104F1048C
:1007800009F048F684E0C0CEFFEFCF16D104E104B3
:10079000F104D1F0C8F062E17AE780E090E0A501D1
:1007A00094010E947D1169017A0191E0C91AD10872
:1007B000E108F108EFEFCE16D104E104F10411F0E5
:1007C00008F0A6CE84E0B7CE83E0B5CE82E0E7CED7
:1007D00000E010E08091F601882309F10FB6F8944B
:1007E0000F92E0911E02F0911F02C681D781CE01C7
:1007F00002960E94E5078091520281508093520236
:100800008091F60181508093F6010F900FBE8F8981
:10081000988D0E94C40BCE010E94C40BDBCF809147
:100820002B02823010F00E94AC080115110591F2E4
:100830000E940000CFCF0F931F9361E08DE00E94D4
:10084000930561E087E00E94930561E082E00E94E9
:10085000930561E083E00E94930561E084E00E94DB
:10086000930561E085E00E94930562E088E00E94C4
:10087000930562E089E00E94930562E08AE00E94AD
:10088000930562E08BE00E94930500E010E021E018
:1008900040E850E06FE971E083E091E00E94B60E1D
:1008A00021E040E850E066EA71E080EE90E00E94CE
:1008B000B60E22E040E850E068EB71E089E691E096
:1008C0000E94B60E22E040E850E063EC71E086EA58
:1008D00090E00E94B60E1F910F9108951F920F9203
:1008E0000FB60F9211242F933F938F939F93AF9343
:1008F000BF9380916E0290916F02A0917002B091AF
:10090000710230916D0223E0230F2D3720F4019600
:10091000A11DB11D05C026E8230F0296A11DB11D22
:1009200020936D0280936E0290936F02A0937002E9
:10093000B09371028091690290916A02A0916B025A
:10094000B0916C020196A11DB11D80936902909334
:100950006A02A0936B02B0936C02BF91AF919F911A
:100960008F913F912F910F900FBE0F901F90189570
:10097000833081F028F4813099F08230A1F008951D
:100980008730A9F08830B9F08430D1F480918000AC
:100990008F7D03C0809180008F77809380000895C1
:1009A00084B58F7702C084B58F7D84BD0895809112
:1009B000B0008F7703C08091B0008F7D8093B0002E
:1009C00008951F93CF93DF93282F30E0F901EE5362
:1009D000FF4F8491F901E255FF4FD491F901E6569A
:1009E000FF4FC491CC23C9F0162F81110E94B80487
:1009F000EC2FF0E0EE0FFF1FE057FF4FA591B491F1
:100A00008FB7F894111105C09C91ED2FE095E92363
:100A100002C0EC91ED2BEC938FBFDF91CF911F9132
:100A200008951F920F920FB60F9211242F933F93A8
:100A30004F935F936F937F938F939F93AF93BF93E6
:100A4000EF93FF938091FC019091FD01A091FE0135
:100A5000B091FF01892B8A2B8B2B59F18091FB01DF
:100A6000E091F901F091FA019081892780838091CA
:100A7000FC019091FD01A091FE01B091FF011816BB
:100A800019061A061B060CF03DC08091FC019091DE
:100A9000FD01A091FE01B091FF010197A109B109EB
:100AA0008093FC019093FD01A093FE01B093FF01A0
:100AB00029C080910001E6EDF0E0E4919FEF909372
:100AC0000001E130B9F098F0E230C9F49091700083
:100AD0009D7F9093700091E09093B0009091B10051
:100AE000987F94609093B1001092B30008C0109268
:100AF0006E0005C090916F009D7F90936F0060E045
:100B00000E94E104FF91EF91BF91AF919F918F916E
:100B10007F916F915F914F913F912F910F900FBEF9
:100B20000F901F901895CF93DF9390E0FC01E25552
:100B3000FF4F2491FC01E656FF4F8491882361F119
:100B400090E0880F991FFC01EA57FF4FC591D4919F
:100B5000FC01E057FF4FA591B491611109C09FB707
:100B6000F8948881209582238883EC912E230BC0F2
:100B7000623061F49FB7F8943881822F8095832387
:100B80008883EC912E2B2C939FBF06C08FB7F894CF
:100B9000E8812E2B28838FBFDF91CF9108950FB668
:100BA000F8940F928091090290910A020F900FBE63
:100BB00008950FB6F8940F92FC01928D0F900FBE1E
:100BC00081E0911180E008950F920FB6F8940F9292
:100BD0001F9211242F923F924F925F926F927F92B9
:100BE0008F929F92AF92BF92CF92DF92EF92FF923D
:100BF0000F931F932F933F934F935F936F937F9325
:100C00008F939F93AF93BF93CF93DF93EF93FF9314
:100C1000A0915002B09151020DB60D920EB60D92F8
:100C200013BE809106028111F3C080910902909158
:100C30000A02019690930A0280930902009799F59F
:100C400020910E0230910F0240910C0250910D0242
:100C500050930F0240930E0230930D0220930C022A
:100C600020910B022F5F20930B02E0910E02F09176
:100C70000F022081211107C02FEF3FEF30930502B3
:100C80002093040210C0E0910E02F0910F02058043
:100C9000F681E02D0680F781E02D228133813093AB
:100CA000050220930402209104023091050282176C
:100CB000930710F420E09CC020E019E0E0910E02C0
:100CC000F0910F023081311107C08FEF9FEF9093A9
:100CD0000502809304028CC0E0910E02F0910F0295
:100CE0000580F681E02D0680F781E02D4281538159
:100CF0008417950728F4509305024093040278C0A6
:100D0000AF014E5F5F4FA285B38564817581E68038
:100D1000F780EB01FD82EC82C681D7817B836A83F9
:100D200011966D917C9112976417750721F41296B4
:100D3000DC93CE931197138612863C9131503C93ED
:100D40003C91A489B5891097F9F066857785E0888C
:100D5000F188EB01FD82EC82C089D1897B836A83B3
:100D60001196ED90FC901297BF01645F7F4FE616DD
:100D7000F70621F41296DC93CE931197158A148A04
:100D80003C9131503C933C91A68930914F023A17E7
:100D900010F4A0934F021A9FD0011124BD01655D8C
:100DA0007D4F7B01DB011196CD91DC911297D583AC
:100DB000C4836C817D81778366836C817D81DB0157
:100DC00013965C934E9312975D834C83F386E28671
:100DD000E70138813F5F3883A0915002B091510202
:100DE000468956963C91431708F468CF21E066CFB8
:100DF000E0915002F0915102E689D9E0ED9FF001B7
:100E00001124E55DFD4F8081823040F021E006C075
:100E10008091F4018F5F8093F40120E08091F501CF
:100E2000811103C0222309F466C080910602882341
:100E300021F081E08093F5015EC01092F501A09150
:100E40005002B0915102E0915002F09151022D9167
:100E50003C918789908D82179307A8F0809150026A
:100E6000909151028091500290915102259A2D9AB1
:100E70002FEF67EA71E6215060407040E1F700C053
:100E800000001D9AF5CF80914F0269E001C08150AA
:100E9000482F50E0649F9001659F300D1124F901A7
:100EA000E55DFD4F9081992391F3A181B281129666
:100EB0000D90BC91A02DB283A183225D3D4FA2175E
:100EC000B30731F412962D913C911397328321830D
:100ED00099E0949FF001959FF00D1124E55DFD4F81
:100EE0000180F281E02D26813781309351022093D9
:100EF000500280934F02A0915002B0915102CD91C7
:100F0000CDBFDD91DEBFFF91EF91DF91CF91BF911A
:100F1000AF919F918F917F916F915F914F913F9191
:100F20002F911F910F91FF90EF90DF90CF90BF9086
:100F3000AF909F908F907F906F905F904F903F9079
:100F40002F901F900F900FBE0F900895FC01DB01B2
:100F50000FB6F8940F924091090250910A028181D4
:100F600092812D913C9111972F3F6FEF3607F1F051
:100F700070910B026081761719F048175907C0F479
:100F8000481B590B4217530770F4241B350B2D9344
:100F90003C9380910B0280838091090290910A0218
:100FA0009283818303C01D921C9202C080E001C025
:100FB00081E00F900FBE0895809106028F5F8093AD
:100FC000060208950E94E4051895CF93DF93FC0173
:100FD000A085B1858281938124813581EC013D8397
:100FE0002C83C481D5819B838A8311968D919C919A
:100FF00012978E179F0721F41296DC93CE931197C8
:10100000118610868C9181508C938C91DF91CF91B9
:101010000895CF93DF939C01FB01DC011196CD91E4
:10102000DC911297D383C2838C819D8195838483C5
:101030008C819D81DC0113967C936E9312977D8346
:101040006C8331872087F90180818F5F8083DF91F6
:10105000CF9108950F931F93CF93DF93DC011596E3
:10106000ED91FC911697C681D7818E01045F1F4FC9
:10107000C8010E94E50780910602811114C00A5040
:101080001109C8010E94E5079E8980914F028917C6
:1010900010F490934F02B9E09B9FC0011124B80156
:1010A000855D9D4F03C0B80182E292E00E9409086D
:1010B000E0915002F09151029E898689891720F4AF
:1010C00081E08093F50101C080E0DF91CF911F9115
:1010D0000F910895EF92FF920F931F93CF93DF9399
:1010E000EC010FB6F8940F921E8D7C0181E1E80EA1
:1010F000F11C01E011165CF48989882341F0C701D5
:101100000E942A0881110093F5011150F3CF8FEF4F
:101110008E8F0F900FBE0FB6F8940F921D8D7E012B
:1011200088E0E80EF11C01E011165CF48885882344
:1011300041F0C7010E942A0881110093F501115066
:10114000F3CF8FEF8D8F0F900FBEDF91CF911F9157
:101150000F91FF90EF9008950F920FB6F8940F92B1
:101160001F9211242F923F924F925F926F927F9223
:101170008F929F92AF92BF92CF92DF92EF92FF92A7
:101180000F931F932F933F934F935F936F937F938F
:101190008F939F93AF93BF93CF93DF93EF93FF937F
:1011A000A0915002B09151020DB60D920EB60D9263
:1011B00080910602882321F081E08093F5015EC0D2
:1011C0001092F501A0915002B0915102E0915002AD
:1011D000F09151022D913C918789908D8217930750
:1011E000A8F080915002909151028091500290910C
:1011F0005102259A2D9A2FEF87EA91E621508040DF
:101200009040E1F700C000001D9AF5CF80914F0299
:1012100069E001C08150482F50E0649F9001659FB4
:10122000300D1124F901E55DFD4F9081992391F373
:10123000A181B28112960D90BC91A02DB283A183A1
:10124000225D3D4FA217B30731F412962D913C91C8
:1012500013973283218399E0949FF001959FF00DBD
:101260001124E55DFD4F0180F281E02D268137815B
:10127000309351022093500280934F02A09150026C
:10128000B0915102CD91CDBFDD91DEBFFF91EF91C5
:10129000DF91CF91BF91AF919F918F917F916F918E
:1012A0005F914F913F912F911F910F91FF90EF9080
:1012B000DF90CF90BF90AF909F908F907F906F9076
:1012C0005F904F903F902F901F900F900FBE0F9008
:1012D00008958F929F92AF92BF92CF92DF92EF923A
:1012E000FF920F931F93CF93DF930FB6F8940F9253
:1012F0008091060281508093060280910602882325
:1013000011F080E0F2C0809152028823D1F3C0E056
:10131000D0E029E0F22EEE24E3948091220288238B
:1013200051F1E0912702F0912802C681D781CE01C8
:101330000C960E94E5078E010E5F1F4FC8010E94A8
:10134000E5079E8980914F02891710F490934F0210
:10135000F99EC0011124B801855D9D4F0E940908C6
:10136000E0915002F09151029E8986899817A8F267
:10137000E092F501D2CFCD2B11F00E948B00E090CE
:10138000F401EE2009F4A9C089E0B82EAA24A394A0
:10139000CC24CA94DC2C8091060281118CC0C091AF
:1013A0000902D0910A022196D0930A02C093090241
:1013B0002097B9F480910E0290910F0220910C02B7
:1013C00030910D0230930F0220930E0290930D0284
:1013D00080930C0280910B028F5F80930B020E941E
:1013E0008B008091040290910502F12CC817D90757
:1013F00008F451C0E0910E02F0910F02808181113A
:1014000005C0D0920502C092040245C0E0910E02D0
:10141000F0910F020580F681E02D06811781D80139
:1014200012968D919C911397C817D90728F4909321
:101430000502809304022FC04801B2E08B0E911C7C
:10144000C4010E94E507F80184899589892B21F060
:10145000C8010C960E94E507D80156968C91909190
:101460004F02981710F480934F02B89EC0011124C8
:10147000B401855D9D4F0E940908E0915002F091F2
:101480005102D80156969C918689981708F4B2CFDC
:10149000FF24F394AFCFE0915002F0915102E6891E
:1014A000BE9EF0011124E55DFD4F8081823048F041
:1014B000FF24F39406C08091F4018F5F8093F401C0
:1014C000F12C8091F501811101C0F110A092F5017C
:1014D000EA94E11060CF1092F4018091F501882325
:1014E00009F40FCF0E94AC0881E00F900FBEDF918E
:1014F000CF911F910F91FF90EF90DF90CF90BF9011
:10150000AF909F908F9008950F931F93CF93DF9389
:101510008C01FB01808191818F3F2FEF920721F495
:10152000E801AF81B8850EC0D801139612962D91AF
:101530003C911397E901488159818417950710F070
:10154000D901F4CF12968D919C9113979383828346
:10155000EC01FD83EC83B583A4831396FC93EE9397
:10156000129711870087F80180818F5F8083DF9158
:10157000CF911F910F910895EF92FF920F931F93B8
:10158000CF93DF93E0910202F091030280818823E0
:1015900069F10580F681E02D00811181C681D78136
:1015A0007E0182E0E80EF11CC7010E94E507E9898F
:1015B000FA89CE0109958E85813021F72C853D85EC
:1015C000200F311F0217130760F43B832A83D9874A
:1015D000C887B70180910202909103020E94840A99
:1015E000D1CFB801CE010E942710CCCF809100024C
:1015F000909101029093030280930202F093010202
:10160000E0930002DF91CF911F910F91FF90EF9037
:101610000895FC017383628391878087461757077B
:1016200078F0421B530B8485958548175907C8F4F9
:10163000BF016E5F7F4F80910002909101020DC04B
:101640004217530718F46217730758F4BF016E5F0F
:101650007F4F80910202909103020E94840A80E0F1
:10166000089581E00895EF92FF920F931F93CF9317
:10167000DF931F92CDB7DEB77C0100910902109174
:101680000A028091500290915102029669830E9451
:10169000E50769818FEFE816F80699F4662389F06B
:1016A00060915002709151026E5F7F4F80E192E035
:1016B0000F90DF91CF911F910F91FF90EF900C94BD
:1016C0000908E00EF11EE0915002F0915102F38200
:1016D000E2826091500270915102E016F10678F4B6
:1016E00080910C0290910D026E5F7F4F0F90DF9101
:1016F000CF911F910F91FF90EF900C94840A8091ED
:101700000E0290910F026E5F7F4F0E94840A8091BB
:10171000040290910502E816F90620F4F092050201
:10172000E09204020F90DF91CF911F910F91FF90F3
:10173000EF900895CF93DF9300D0CDB7DEB7009739
:1017400019F40E94AC080DC089839A830E94DC07BB
:1017500060E089819A810E94330B0E946909882385
:1017600081F30F900F90DF91CF910895FC010396C4
:10177000928381832FEF3FEF348323839683858386
:101780009087878310820895CF93DF93009751F05D
:10179000EC010E94DC07CE010E945112DF91CF9133
:1017A0000C946909DF91CF910895CF93DF93CDB762
:1017B000DEB72C970FB6F894DEBF0FBECDBFE09119
:1017C0000202F09103028081FF24F394882339F010
:1017D000F12C0580F681E02D0081118102C000E02E
:1017E00010E00E94DC070E94CF056C018091F70198
:1017F0009091F801C816D90620F40E94BC0A81E035
:1018000001C080E0D092F801C092F701811175C04B
:10181000F11031C0C016D106B0F10E946909E09103
:101820000202F09103020580F681E02DE680F78048
:10183000C70102960E94E507D7011E968C911E975C
:10184000813089F41C966D917C911D97600F711FFA
:101850009801A601C7010E94090B882321F0B80155
:10186000C7010E942710D7015196ED91FC91529724
:10187000C7010995CCC0E0910002F091010280817E
:10188000BB24B3948111B12CE0900702F0900802C0
:101890000FB6F8940F92F701858D8F3F09F4158EDE
:1018A000D7015E968C915E978F3F11F45E961C92E5
:1018B0000F900FBEF701828D811115C0609150020B
:1018C00070915102645F7F4FC70141960E940908E1
:1018D000B11004C0C8018C199D0902C08FEF9FEFA1
:1018E0006B2D0E94330BC7010E946A080E94690990
:1018F00081118DC00E94AC088AC00E94690987C00E
:10190000911109C080910B028E8380910902909100
:101910000A0298878F830F900FBE0E94DC070FB6D4
:10192000F8940F92D8015D968C915D978F3F11F4DA
:101930005D961C92F801868D8F3F09F4168E0F90EC
:101940000FBEBE01675F7F4FCE0106960E94A607BD
:101950008111D8C0C8010E94D905882309F4CCC0E0
:10196000E984FA846091500270915102645F7F4F64
:10197000C6010E94840A61E0C7010E94330BC801BE
:101980000E946A080E946909882309F4B2C091E0A4
:101990000FB6F8940F92F801F28CFF2009F4A1C061
:1019A000448D411140C0FA94F801F28E8085811176
:1019B00054C00F900FBEC980C7FC29C00C811D8187
:1019C000D8011A968D919C911B97892B21F0C80103
:1019D00002960E94E5070E94CF05AC018091F701B5
:1019E0009091F8014817590730F44B875C870E94A3
:1019F000BC0A5C854B855093F8014093F7018C2D10
:101A0000CC0C990BAA0BBB0B8A30910580F100918D
:101A10000702109108021A86198690E06801B1E168
:101A2000CB0ED11CB5CF50E086819781840F951FD6
:101A300097838683228133818217930720F08081E8
:101A4000918197838683D80116966D917C91179723
:101A5000CE0101960E94E912A6CFC80108960E9405
:101A60002A08882309F4A5CF0E94AC08A2CFFC0164
:101A7000EC5CFF4F0C949C11EA80FB80F8016485BC
:101A800075856E0D7F1D9701C8010E94090B882383
:101A900009F4BDCFD8015196ED91FC915297C80140
:101AA0000995F8018685813009F0B1CF8485958547
:101AB000B701680F791FC8010E942710A8CF6A815B
:101AC0007B81D8011D967C936E931C97640F751FC4
:101AD0009A01C8010E94090B9ACFC8010E94C40B49
:101AE00096CF29853A85232B09F00ACF0F900FBE98
:101AF00066CE0E94AC084BCFC8010E946A080E94C3
:101B0000690945CFC8010E946A080E946909C80195
:101B10000E94D905882309F43ACF51CE0F931F9321
:101B2000CF93DF9300D0CDB7DEB789839A830E942D
:101B3000DC0789819A810E94BC118C010E9469098D
:101B40000115110569F4259A2D9A2FEF80E792E08F
:101B5000215080409040E1F700C000001D9AF5CF71
:101B6000C8010F900F90DF91CF911F910F910895B1
:101B7000AF92BF92CF92DF92EF92FF920F931F939B
:101B8000CF93DF9300D000D01F92CDB7DEB78C018A
:101B90007B011D821C8290E0580188E0A80EB11CD8
:101BA0000FB6F8940F92F801228D838D281708F054
:101BB0006DC0D28C448D41113FC080819181892BB1
:101BC00009F052C0F801E280F380E114F10411F44D
:101BD00080E02EC0F70182A1815082A3268991A1C5
:101BE0002917B1F38111F4CF5701F2E0AF0EB11C08
:101BF000C5010E94E507F70191A1968B492F50E09E
:101C000024E030E0241B350B3587248780914F0278
:101C1000891710F490934F0229E0249FC001259F5B
:101C2000900D1124B501855D9D4F0E94090881E04A
:101C3000F8011382128219C050E0B701F8018481C3
:101C400095810E94E912F801248D84819581820F8B
:101C5000911D95838483228133818217930720F01D
:101C6000808191819583848380E0D394F801D28E22
:101C70009189992321F0C80141960E942A08811177
:101C80000E94AC080F900FBE81E060C02C813D81A6
:101C9000232B19F40F900FBE58C0911109C08091E9
:101CA0000B0289838091090290910A029B838A83A7
:101CB0000F900FBE0E94DC070FB6F8940F92F80148
:101CC000858D8F3F09F4158EF801868D8F3F09F4BD
:101CD000168E0F900FBEBE016C5F7F4FCE01019636
:101CE0000E94A60781112CC00FB6F8940F92F8013C
:101CF000928D838D0F900FBE98131CC0CC80DD8019
:101D00002091500230915102B901645F7F4FC501AB
:101D10000E94840A61E0C6010E94330BC8010E9440
:101D20006A080E946909882311F091E039CF0E9466
:101D3000AC08FBCFC8010E946A080E946909F5CF70
:101D4000C8010E946A080E94690980E00F900F9004
:101D50000F900F900F90DF91CF911F910F91FF90F7
:101D6000EF90DF90CF90BF90AF9008957F928F92C9
:101D70009F92AF92BF92CF92DF92EF92FF920F931A
:101D80001F93CF93DF93982EC92E762E872EEA01CC
:101D9000D22ECA010E948E0D5C01892B09F448C124
:101DA00088E290E00E948E0D7C010097D9F0DC0162
:101DB0005896BC92AE925797AE0165EA70E0C501A5
:101DC0000E94F2122197D7015796ED91FC915897F6
:101DD000EC0FFD1FB701675E7F4FA72DB82DCD011A
:101DE000089607C0C5010E94C40B22C1A817B907F5
:101DF00049F09D014D91EB014993BE01E901288114
:101E00002111F4CFD70190961C922D2D243008F08B
:101E100023E0E7012E8B29A31AA21B861A861D8AAE
:101E20001C8AF986E88684E090E0821B91099D87F0
:101E30008C87FB8AEA8A1BA21CA21DA21EA21FA2DB
:101E400091E19083DF01119782E28C93119723E354
:101E50002C9311979C921197CC9211971C921197E9
:101E600020E82C9311971C92119722E02C93119744
:101E700023E02C93119724E02C93119725E02C93C9
:101E8000119726E02C93119727E02C93119728E0C7
:101E90002C93119729E02C93119720E12C93119703
:101EA0009C93119792E19C93119793E19C931197C6
:101EB00094E19C93119795E19C93119796E19C93E3
:101EC000119797E19C93119798E19C93119799E151
:101ED0009C93119790E29C93119791E29C93119798
:101EE0008C93119783E28C9311971C9211971C92FB
:101EF000119786E28C93119787E28C93119788E271
:101F00008C93119789E28C93119780E38C931197AE
:101F100081E38C93B697F983E8830115110519F0D5
:101F2000F801F182E0820FB6F8940F92809152028C
:101F30008F5F809352028091500290915102892BC1
:101F4000D1F5F0925102E09250028091520281301C
:101F500009F043C08BE292E00E94B60B84E392E06A
:101F60000E94B60B8DE392E00E94B60B86E492E0ED
:101F70000E94B60B8BE792E00E94B60B82E792E0DC
:101F80000E94B60B82E292E00E94B60B89E192E0D9
:101F90000E94B60B80E192E00E94B60B8BE792E0C4
:101FA00090930F0280930E0282E792E090930D02CD
:101FB00080930C0212C08091850281110EC0E091C5
:101FC0005002F09151029689D70156968C9189174B
:101FD00020F0F0925102E0925002809184028F5FD3
:101FE00080938402E7018E8990914F02981710F434
:101FF00080934F02D9E08D9FC0011124B7016E5F1D
:102000007F4F855D9D4F0E9409080F900FBE809104
:102010008502882359F0E0915002F091510296898F
:10202000F7018689981710F40E94AC0881E001C07E
:102030008FEFDF91CF911F910F91FF90EF90DF9085
:10204000CF90BF90AF909F908F907F900895CF9347
:10205000DF9300D000D01F92CDB7DEB79C018091F6
:10206000070290910802009761F019827B836A83CE
:102070003D832C8320918502222329F020910602A2
:1020800002C080E005C0BE016F5F7F4F0E94B80DA7
:102090000F900F900F900F900F90DF91CF910895B8
:1020A000789484B5826084BD84B5816084BD85B533
:1020B000826085BD85B5816085BD80916E0081603F
:1020C00080936E00109281008091810082608093E5
:1020D00081008091810081608093810080918000E7
:1020E0008160809380008091B10084608093B10012
:1020F0008091B00081608093B00080917A0084600C
:1021000080937A0080917A00826080937A00809137
:102110007A00816080937A0080917A008068809351
:102120007A001092C1000E941B0407E612E020E032
:1021300040EC50E06EEC71E088EE93E00E94B60E49
:10214000813009F0AFC00FB6F8940F92809107026A
:1021500090910802892B09F04BC08CE592E00E9417
:10216000B60B83E592E00E94B60B8CE592E090936B
:1021700003028093020283E592E090930102809330
:10218000000281E590E00E948E0DEC01009761F164
:102190004F96998388838AE08B8F85E08C8F0FB66A
:1021A000F8940F92288139819B8D4C8D949FC001AA
:1021B0001124B901680F791F7B836A831A8E3D83CE
:1021C0002C83841B9109820F931F9F838E838FEF33
:1021D0008D8F8E8FCE0108960E94B60BCE01419650
:1021E0000E94B60B0F900FBED0930802C093070257
:1021F0000F900FBE8091070290910802892B09F47D
:1022000051C005E612E023E045E550E063ED71E0E2
:1022100085ED9BE00E94B60E813009F043C0F89432
:102220002FEF3FEF30930502209304028093850245
:1022300010920A0210920902A89590EC88E10FB65C
:10224000F894A895809360000FBE90936000A091D1
:102250005002B0915102CD91CDBFDD91DEBFFF9113
:10226000EF91DF91CF91BF91AF919F918F917F912E
:102270006F915F914F913F912F911F910F91FF901F
:10228000EF90DF90CF90BF90AF909F908F907F9016
:102290006F905F904F903F902F901F900F900FBEC8
:1022A0000F9008950E941B04C0E0D0E02097F1F346
:1022B0000E940000FBCFA1E21A2EAA1BBB1BFD014E
:1022C0000DC0AA1FBB1FEE1FFF1FA217B307E40715
:1022D000F50720F0A21BB30BE40BF50B661F771F6D
:1022E000881F991F1A9469F760957095809590954D
:1022F0009B01AC01BD01CF010895052E97FB1EF493
:1023000000940E94941157FD07D00E945B1107FCB6
:1023100003D04EF40C94941150954095309521952E
:102320003F4F4F4F5F4F0895909580957095619501
:102330007F4F8F4F9F4F0895EE0FFF1F0590F49131
:10234000E02D09940E94AD11A59F900DB49F900DB2
:10235000A49F800D911D11240895A29FB001B39FE9
:10236000C001A39F700D811D1124911DB29F700D9E
:10237000811D1124911D0895CF93DF938230910523
:1023800010F482E090E0E0918802F091890220E070
:1023900030E0C0E0D0E0309711F140815181481722
:1023A0005907C0F04817590761F48281938120973B
:1023B00019F09B838A832BC09093890280938802B3
:1023C00026C02115310519F04217530718F49A0158
:1023D000BE01DF01EF010280F381E02DDCCF21158A
:1023E000310509F1281B390B2430310590F4129680
:1023F0008D919C9113976115710521F0FB019383D9
:10240000828304C09093890280938802FD013296F2
:1024100044C0FD01E20FF31F8193919322503109D3
:102420002D933C933AC02091860230918702232B52
:1024300041F42091030130910401309387022093ED
:10244000860220910101309102012115310541F4EC
:102450002DB73EB74091050150910601241B350B65
:10246000E0918602F0918702E217F307A0F42E1B99
:102470003F0B2817390778F0AC014E5F5F4F2417E8
:10248000350748F04E0F5F1F509387024093860236
:102490008193919302C0E0E0F0E0CF01DF91CF9112
:1024A00008950F931F93CF93DF93009709F48CC087
:1024B000FC013297138212820091880210918902E6
:1024C0000115110581F420813181820F931F209124
:1024D0008602309187022817390779F5F093870231
:1024E000E093860271C0D80140E050E0AE17BF070C
:1024F00050F412962D913C911397AD0121153105A1
:1025000009F1D901F3CF9D01DA0133832283608180
:102510007181860F971F8217930769F4EC01288158
:102520003981260F371F2E5F3F4F318320838A81E9
:102530009B8193838283452B29F4F0938902E09356
:10254000880242C01396FC93EE931297ED014991D5
:1025500059919E01240F351FE217F30771F4808112
:102560009181840F951F029611969C938E93828180
:10257000938113969C938E931297E0E0F0E0D8013C
:1025800012968D919C911397009719F0F8018C0188
:10259000F6CF8D919C9198012E5F3F4F820F931F34
:1025A00020918602309187022817390769F4309705
:1025B00029F4109289021092880202C013821282BA
:1025C0001093870200938602DF91CF911F910F91A4
:1025D0000895FB01DC0102C001900D924150504072
:1025E000D8F70895DC0101C06D9341505040E0F7E9
:0625F0000895F894FFCFEE
:1025F600FF00008A028000060126014A015D015D96
:10260600015D0106012601060126012601260106B5
:102616000188015D014A014A014A01060126014A73
:10262600015D015D015D01C80000002C0100002C68
:102636000100002C0100002C0100002C01000064A8
:102646000000002C010000640000002C0100002C9A
:102656000100002C010000C8000000C8000000C8EE
:102666000000002C0100002C0100002C010000C815
:102676000000002C0100002C0100002C0100002CA1
:102686000100002C01000008090A0B02030405439F
:102696006861766573005069736361724C65644462
:1026A600696E616D69636F0044697370617261532D
:1026B6006F6D005069736361724C656473004944C1
:0C26C6004C4500546D72205376630000F8
:00000001FF
