:100000000C946B000C9488000C9488000C9488006D
:100010000C9488000C9488000C94A4050C9488001F
:100020000C9488000C9488000C9488000C94880030
:100030000C9488000C9488000C9488000C94880020
:100040000C94CB020C9488000C9488000C948800CB
:100050000C9488000C9488000C9488000C94880000
:100060000C9488000C948800910A910A910A760AEF
:10007000B20AC00A910A910A760AB20A0000000088
:1000800023002600290000000000240027002A0089
:1000900000000000250028002B00040404040404D0
:1000A0000404020202020202030303030303010227
:1000B00004081020408001020408102001020408F6
:1000C00010200000000800020100000304070000E7
:1000D00000000000000011241FBECFEFD8E0DEBFFB
:1000E000CDBF11E0A0E0B1E0E4E9F1E202C005908B
:1000F0000D92A034B107D9F721E0A0E4B1E001C02E
:100100001D92AD3DB207E1F70E940B0B0C94C81095
:100110000C940000833081F028F4813099F0823013
:10012000A1F008958730A9F08830B9F08430D1F477
:10013000809180008F7D03C0809180008F778093B5
:100140008000089584B58F7702C084B58F7D84BD0B
:1001500008958091B0008F7703C08091B0008F7DAB
:100160008093B00008951F93CF93DF93282F30E042
:10017000F901EE53FF4F8491F901E255FF4FD491FD
:10018000F901E656FF4FC491CC23C9F0162F811117
:100190000E948A00EC2FF0E0EE0FFF1FE057FF4FA8
:1001A000A591B4918FB7F894111105C09C91ED2FD2
:1001B000E095E92302C0EC91ED2BEC938FBFDF912A
:1001C000CF911F910895CF93DF9390E0FC01E2550A
:1001D000FF4F2491FC01E656FF4F8491882361F183
:1001E00090E0880F991FFC01EA57FF4FC591D49109
:1001F000FC01E057FF4FA591B491611109C09FB771
:10020000F8948881209582238883EC912E230BC05B
:10021000623061F49FB7F8943881822F80958323F0
:100220008883EC912E2B2C939FBF06C08FB7F89438
:10023000E8812E2B28838FBFDF91CF910895E09125
:100240007401F09175018081811103C08FEF9FEFE0
:100250000CC0E0917401F09175010580F681E02DEC
:100260000680F781E02D8281938190936C018093C9
:100270006B0108950F931F9362E081E00E94080FC5
:1002800090934D0180934C0140E060E471E00E9446
:10029000EE0D61E08DE00E94E30061E082E00E94EB
:1002A000E30061E083E00E94E30061E084E00E94FB
:1002B000E30061E085E00E94E30062E088E00E94E4
:1002C000E30062E089E00E94E30062E08AE00E94CD
:1002D000E30062E08BE00E94E30000E010E023E036
:1002E00040E850E06EE071E088E092E00E947D0C12
:1002F00022E040E850E065E171E08DE891E00E9485
:100300007D0C21E040E850E060E271E089ED91E091
:100310000E947D0C1F910F910895CF93DF9300D021
:10032000CDB7DEB7BE016F5F7F4F80914C019091DA
:100330004D010E94E60B80914A0190914B0100977C
:1003400021F429813A81232BD9F4FC01EA5BFE4F89
:100350002081211115C0FC01E65FFE4F61E0808124
:100360000E94B3008CE090E00E940C09E0914A01E9
:10037000F0914B01E65FFE4F60E080810E94B30088
:1003800080914A0190914B019C012F5F3F4F243097
:10039000310529F030934B0120934A0105C00397A2
:1003A00090934B0180934A0181E090E00E940C09F8
:1003B000B9CFCF93DF9300D0CDB7DEB7BE016F5F6B
:1003C0007F4F80914C0190914D010E94E60B8981F5
:1003D0009A818230910589F461E082E00E94B30045
:1003E00086E090E00E940C0960E082E00E94B30089
:1003F00086E090E00E940C0906C0019721F461E0BC
:1004000082E00E94B30081E090E00E940C09D6CF08
:10041000BB24B39496E0C92E91E0D92EC6E4D1E076
:100420002AE0E22E21E0F22E00E010E0F601219118
:100430006F0130E0F901EE53FF4F8491F901E2556D
:10044000FF4F9490F901E656FF4FA490AA2071F057
:1004500081110E948A00EA2DF0E0EE0FFF1FE458A0
:10046000FF4FA591B491EC919E22A1F4B88261E076
:10047000F70180810E94B3000F5F1F4F2196FFEFAD
:10048000EF1AFF0A0430110589F681E090E00E941E
:100490000C09C0CF8881882379F30115110509F073
:1004A00040C00E941503A0E0B0E04091420150918D
:1004B00043016091440170914501841B950BA60B8B
:1004C000B70B0B97A105B10530F1809140019091D8
:1004D000410101968330910528F490934101809366
:1004E000400104C010924101109240010E94150386
:1004F000A0E0B0E08093420190934301A0934401B7
:10050000B093450142E060E471E080914C0190912C
:100510004D010E94EE0D80914001909141010197A3
:1005200029F060E0F70180810E94B3001882A4CF17
:1005300000E010E080915001882309F10FB6F89493
:100540000F92E0918401F0918501C681D781CE019F
:1005500002960E94A7058091B90181508093B9014C
:10056000809150018150809350010F900FBE8F8970
:10057000988D0E943609CE010E943609DBCF80910A
:100580009101823010F00E9434070115110591F29B
:100590000E940000CFCF1F920F920FB60F9211242E
:1005A0002F933F938F939F93AF93BF938091C201FB
:1005B0009091C301A091C401B091C5013091C101D6
:1005C00023E0230F2D3720F40196A11DB11D05C096
:1005D00026E8230F0296A11DB11D2093C10180932F
:1005E000C2019093C301A093C401B093C50180914F
:1005F000BD019091BE01A091BF01B091C0010196D3
:10060000A11DB11D8093BD019093BE01A093BF01B8
:10061000B093C001BF91AF919F918F913F912F9166
:100620000F900FBE0F901F9018950FB6F8940F9271
:100630008091BA019091BB010F900FBE08950F9366
:100640001F93CF93DF938C01FB01808191818F3FBA
:100650002FEF920721F4E801AF81B8850EC0D801D1
:10066000139612962D913C911397E9014881598177
:100670008417950710F0D901F4CF12968D919C91B3
:10068000139793838283EC01FD83EC83B583A4836A
:100690001396FC93EE93129711870087F8018081DF
:1006A0008F5F8083DF91CF911F910F910895FC019F
:1006B00073836283918780874617570778F0421BC0
:1006C000530B8485958548175907C8F4BF016E5FA1
:1006D0007F4F80915301909154010DC042175307F1
:1006E00018F46217730758F4BF016E5F7F4F809153
:1006F0005501909156010E941F0380E0089581E00A
:1007000008950F920FB6F8940F921F9211242F9212
:100710003F924F925F926F927F928F929F92AF9291
:10072000BF92CF92DF92EF92FF920F931F932F937E
:100730003F934F935F936F937F938F939F93AF9369
:10074000BF93CF93DF93EF93FF93A091B701B09145
:10075000B8010DB60D920EB60D9213BE80916F01C9
:100760008111F3C08091BA019091BB0101969093E1
:10077000BB018093BA01009799F5209174013091E3
:10078000750140917201509173015093750140932E
:10079000740130937301209372012091BC012F5F8B
:1007A0002093BC01E0917401F09175012081211129
:1007B00007C02FEF3FEF30936C0120936B0110C007
:1007C000E0917401F09175010580F681E02D0680BD
:1007D000F781E02D2281338130936C0120936B01EE
:1007E00020916B0130916C018217930710F420E087
:1007F0009CC020E019E0E0917401F0917501308116
:10080000311107C08FEF9FEF90936C0180936B01C4
:100810008CC0E0917401F09175010580F681E02DA6
:100820000680F781E02D428153818417950728F4D3
:1008300050936C0140936B0178C0AF014E5F5F4FE6
:10084000A285B38564817581E680F780EB01FD8226
:10085000EC82C681D7817B836A8311966D917C91EE
:1008600012976417750721F41296DC93CE931197B3
:10087000138612863C9131503C933C91A489B589F2
:100880001097F9F066857785E088F188EB01FD82A5
:10089000EC82C089D1897B836A831196ED90FC90AC
:1008A0001297BF01645F7F4FE616F70621F4129698
:1008B000DC93CE931197158A148A3C9131503C9366
:1008C0003C91A6893091B5013A1710F4A093B50177
:1008D0001A9FD0011124BD016F567E4F7B01DB01B1
:1008E0001196CD91DC911297D583C4836C817D8163
:1008F000778366836C817D81DB0113965C934E93D5
:1009000012975D834C83F386E286E70138813F5F6F
:100910003883A091B701B091B801468956963C91B1
:10092000431708F468CF21E066CFE091B701F0915A
:10093000B801E689D9E0ED9FF0011124EF56FE4F92
:100940008081823040F021E006C080914E018F5FAF
:1009500080934E0120E080914F01811103C022233A
:1009600009F466C080916F01882321F081E08093B3
:100970004F015EC010924F01A091B701B091B80134
:10098000E091B701F091B8012D913C918789908D4C
:1009900082179307A8F08091B7019091B8018091D8
:1009A000B7019091B801259A2D9A2FEF67EA71E669
:1009B000215060407040E1F700C000001D9AF5CF63
:1009C0008091B50169E001C08150482F50E0649FDB
:1009D0009001659F300D1124F901EF56FE4F908173
:1009E000992391F3A181B28112960D90BC91A02D13
:1009F000B283A1832C563E4FA217B30731F412964F
:100A00002D913C9113973283218399E0949FF001BB
:100A1000959FF00D1124EF56FE4F0180F281E02DDD
:100A2000268137813093B8012093B7018093B501B7
:100A3000A091B701B091B801CD91CDBFDD91DEBFDE
:100A4000FF91EF91DF91CF91BF91AF919F918F91E6
:100A50007F916F915F914F913F912F911F910F91D6
:100A6000FF90EF90DF90CF90BF90AF909F908F90CE
:100A70007F906F905F904F903F902F901F900F90BE
:100A80000FBE0F900895FC01DB010FB6F8940F9292
:100A90004091BA015091BB01818192812D913C918D
:100AA00011972F3F6FEF3607F1F07091BC01608115
:100AB000761719F048175907C0F4481B590B42170D
:100AC000530770F4241B350B2D933C938091BC018C
:100AD00080838091BA019091BB019283818303C08E
:100AE0001D921C9202C080E001C081E00F900FBEF9
:100AF000089580916F018F5F80936F0108950FB605
:100B0000F8940F92FC01928D0F900FBE81E091112D
:100B100080E00895FC01CB01448D4423A1F050E016
:100B200026813781240F351F3783268362817381A5
:100B30002617370720F0208131813783268366818D
:100B400077810C94B81008950E9481031895CF9373
:100B5000DF93FC01A085B185828193812481358159
:100B6000EC013D832C83C481D5819B838A831196BC
:100B70008D919C9112978E179F0721F41296DC930A
:100B8000CE931197118610868C9181508C938C9105
:100B9000DF91CF910895EF92FF920F931F93CF9320
:100BA000DF93E0915501F09156018081882369F12E
:100BB0000580F681E02D00811181C681D7817E01FB
:100BC00082E0E80EF11CC7010E94A705E989FA89B5
:100BD000CE0109958E85813021F72C853D85200F2A
:100BE000311F0217130760F43B832A83D987C88714
:100BF000B70180915501909156010E941F03D1CFFA
:100C0000B801CE010E945B0FCCCF8091530190912F
:100C100054019093560180935501F0935401E09351
:100C20005301DF91CF911F910F91FF90EF900895A5
:100C3000CF93DF939C01FB01DC011196CD91DC91F8
:100C40001297D383C2838C819D81958384838C8109
:100C50009D81DC0113967C936E9312977D836C8348
:100C600031872087F90180818F5F8083DF91CF9169
:100C70000895EF92FF920F931F93CF93DF931F92EC
:100C8000CDB7DEB77C010091BA011091BB01809114
:100C9000B7019091B801029669830E94A705698106
:100CA0008FEFE816F80699F4662389F06091B70192
:100CB0007091B8016E5F7F4F86E791E00F90DF91F2
:100CC000CF911F910F91FF90EF900C941806E00EBA
:100CD000F11EE091B701F091B801F382E2826091D8
:100CE000B7017091B801E016F10678F480917201B5
:100CF000909173016E5F7F4F0F90DF91CF911F91A5
:100D00000F91FF90EF900C941F03809174019091CC
:100D100075016E5F7F4F0E941F0380916B01909160
:100D20006C01E816F90620F4F0926C01E0926B0178
:100D30000F90DF91CF911F910F91FF90EF90089549
:100D4000CF93DF93EB012091B7013091B801B90146
:100D5000645F7F4F0E941F0361E0CE01DF91CF915E
:100D60000C9439060F931F93CF93DF93DC011596F4
:100D7000ED91FC911697C681D7818E01045F1F4FBC
:100D8000C8010E94A70580916F01811114C00A500B
:100D90001109C8010E94A7059E898091B501891794
:100DA00010F49093B501B9E09B9FC0011124B801E4
:100DB0008F569E4F03C0B80188E891E00E94180644
:100DC000E091B701F091B8019E898689891720F4D6
:100DD00081E080934F0101C080E0DF91CF911F91AE
:100DE0000F910895EF92FF920F931F93CF93DF938C
:100DF000EC010FB6F8940F921E8D7C0181E1E80E94
:100E0000F11C01E011165CF48989882341F0C701C7
:100E10000E94B206811100934F011150F3CF8FEF62
:100E20008E8F0F900FBE0FB6F8940F921D8D7E011E
:100E300088E0E80EF11C01E011165CF48885882337
:100E400041F0C7010E94B206811100934F01115079
:100E5000F3CF8FEF8D8F0F900FBEDF91CF911F914A
:100E60000F91FF90EF9008950F920FB6F8940F92A4
:100E70001F9211242F923F924F925F926F927F9216
:100E80008F929F92AF92BF92CF92DF92EF92FF929A
:100E90000F931F932F933F934F935F936F937F9382
:100EA0008F939F93AF93BF93CF93DF93EF93FF9372
:100EB000A091B701B091B8010DB60D920EB60D928A
:100EC00080916F01882321F081E080934F015EC003
:100ED00010924F01A091B701B091B801E091B70114
:100EE000F091B8012D913C918789908D82179307DD
:100EF000A8F08091B7019091B8018091B7019091CD
:100F0000B801259A2D9A2FEF87EA91E6215080406B
:100F10009040E1F700C000001D9AF5CF8091B50127
:100F200069E001C08150482F50E0649F9001659FA7
:100F3000300D1124F901EF56FE4F9081992391F362
:100F4000A181B28112960D90BC91A02DB283A18394
:100F50002C563E4FA217B30731F412962D913C91B7
:100F600013973283218399E0949FF001959FF00DB0
:100F70001124EF56FE4F0180F281E02D268137814A
:100F80003093B8012093B7018093B501A091B701C8
:100F9000B091B801CD91CDBFDD91DEBFFF91EF9152
:100FA000DF91CF91BF91AF919F918F917F916F9181
:100FB0005F914F913F912F911F910F91FF90EF9073
:100FC000DF90CF90BF90AF909F908F907F906F9069
:100FD0005F904F903F902F901F900F900FBE0F90FB
:100FE00008958F929F92AF92BF92CF92DF92EF922D
:100FF000FF920F931F93CF93DF930FB6F8940F9246
:1010000080916F01815080936F0180916F018823DF
:1010100011F080E0F2C08091B9018823D1F3C0E0E3
:10102000D0E029E0F22EEE24E39480918801882319
:1010300051F1E0918D01F0918E01C681D781CE01F1
:101040000C960E94A7058E010E5F1F4FC8010E94DB
:10105000A7059E898091B501891710F49093B50179
:10106000F99EC0011124B8018F569E4F0E941806A8
:10107000E091B701F091B8019E8986899817A8F28E
:10108000E0924F01D2CFCD2B11F00E941F01E090D2
:101090004E01EE2009F4A9C089E0B82EAA24A39439
:1010A000CC24CA94DC2C80916F0181118CC0C0913A
:1010B000BA01D091BB012196D093BB01C093BA0174
:1010C0002097B9F48091740190917501209172017B
:1010D00030917301309375012093740190937301E3
:1010E000809372018091BC018F5F8093BC010E944C
:1010F0001F0180916B0190916C01F12CC817D907E9
:1011000008F451C0E0917401F09175018081811162
:1011100005C0D0926C01C0926B0145C0E091740192
:10112000F09175010580F681E02D06811781D801C7
:1011300012968D919C911397C817D90728F4909314
:101140006C0180936B012FC04801B2E08B0E911CA3
:10115000C4010E94A705F80184899589892B21F093
:10116000C8010C960E94A705D80156968C919091C3
:10117000B501981710F48093B501B89EC0011124F1
:10118000B4018F569E4F0E941806E091B701F0916E
:10119000B801D80156969C918689981708F4B2CF69
:1011A000FF24F394AFCFE091B701F091B801E68945
:1011B000BE9EF0011124EF56FE4F8081823048F030
:1011C000FF24F39406C080914E018F5F80934E01FF
:1011D000F12C80914F01811101C0F110A0924F01BB
:1011E000EA94E11060CF10924E0180914F01882364
:1011F00009F40FCF0E94340781E00F900FBEDF91FA
:10120000CF911F910F91FF90EF90DF90CF90BF9003
:10121000AF909F908F900895CF93DF9300D0CDB77C
:10122000DEB7009719F40E9434070DC089839A83B2
:101230000E94790560E089819A810E9439060E94A6
:10124000F107882381F30F900F90DF91CF910895DC
:10125000FC010396928381832FEF3FEF3483238336
:10126000968385839087878310820895CF93DF9339
:10127000009751F0EC010E947905CE010E942010E8
:10128000DF91CF910C94F107DF91CF910895CF9327
:10129000DF93CDB7DEB72C970FB6F894DEBF0FBE45
:1012A000CDBFE0915501F09156018081FF24F39468
:1012B000882339F0F12C0580F681E02D0081118121
:1012C00002C000E010E00E9479050E9415036C0145
:1012D0008091510190915201C816D90620F40E94C4
:1012E000CB0581E001C080E0D0925201C092510153
:1012F000811175C0F11031C0C016D106B0F10E9445
:10130000F107E0915501F09156010580F681E02D3D
:10131000E680F780C70102960E94A705D7011E96B6
:101320008C911E97813089F41C966D917C911D974C
:10133000600F711F9801A601C7010E9457038823FF
:1013400021F0B801C7010E945B0FD7015196ED91C2
:10135000FC915297C7010995C9C0E0915301F091E2
:1013600054018081BB24B3948111B12CE0907001B1
:10137000F09071010FB6F8940F92F701858D8F3FB1
:1013800009F4158ED7015E968C915E978F3F11F40C
:101390005E961C920F900FBEF701828D811115C0D1
:1013A0006091B7017091B801645F7F4FC7014196AA
:1013B0000E941806B11004C0C8018C199D0902C012
:1013C0008FEF9FEF6B2D0E943906C7010E94F20636
:1013D0000E94F10781118AC00E94340787C00E94D1
:1013E000F10784C0911109C08091BC018E83809166
:1013F000BA019091BB0198878F830F900FBE0E9416
:1014000079050FB6F8940F92F801858D8F3F09F496
:10141000158ED8015E968C915E978F3F11F45E9683
:101420001C920F900FBEBE01675F7F4FCE010696E4
:101430000E9443058111B9C0C8010E947F0588231D
:1014400009F4ADC069857A85C6010E94A006C8016D
:101450000E94F2060E94F107882309F49DC091E0E2
:101460000FB6F8940F92F801F28CFF2009F48CC0AB
:10147000BE016F5F7F4FC8010E948A05FA94D801B0
:101480005A96FC925A9718968C9181113BC00F90F6
:101490000FBE898187FD2AC00C811D81D8011A9653
:1014A0008D919C911B97892B21F0C80102960E9477
:1014B000A7050E941503AC01809151019091520142
:1014C0004817590730F44B875C870E94CB055C8531
:1014D0004B855093520140935101E9818E2FEE0FBD
:1014E000990BAA0BBB0B8A309105B0F000917001EB
:1014F000109171011A86198690E06801B1E1CB0E56
:10150000D11CAECFC80108960E94B206882309F408
:10151000BECF0E943407BBCFFC01EC5CFF4F0C94A4
:10152000850F2A813B81F80164857585620F731FE1
:10153000C8010E9457038823C9F2D8015196ED9142
:10154000FC915297C8010995F8018685813071F6A2
:10155000648575858A819B81680F791FC8010E9407
:101560005B0FC4CF6A817B81D8011D967C936E93FB
:101570001C97640F751F9A01C8010E945703B6CFCC
:10158000C8010E943609B2CF29853A85232B09F07C
:1015900029CF0F900FBE85CE0E94340760CFC801BF
:1015A0000E94F2060E94F1075ACFC8010E94F2067B
:1015B0000E94F107C8010E947F05882309F44FCFDC
:1015C00070CE0F931F93CF93DF9300D0CDB7DEB7CC
:1015D00089839A830E94790589819A810E948B0F61
:1015E0008C010E94F1070115110569F4259A2D9AC5
:1015F0002FEF80E792E0215080409040E1F700C05B
:1016000000001D9AF5CFC8010F900F90DF91CF9188
:101610001F910F910895789484B5826084BD84B53C
:10162000816084BD85B5826085BD85B5816085BDDD
:1016300080916E00816080936E0010928100809195
:10164000810082608093810080918100816080931D
:101650008100809180008160809380008091B10042
:1016600084608093B1008091B00081608093B0006D
:1016700080917A00846080937A0080917A00826001
:1016800080937A0080917A00816080937A008091C3
:101690007A00806880937A001092C1000E943A011B
:1016A0000DE611E020E040EC50E062E371E088E9F3
:1016B00092E00E947D0C813009F07FC00FB6F89453
:1016C0000F928091700190917101892BE1F480E675
:1016D00091E00E94280987E591E00E94280980E6B0
:1016E00091E0909356018093550187E591E09093A6
:1016F00054018093530165E08AE00E94080F9093A3
:101700007101809370010F900FBE809170019091D4
:101710007101892B09F451C009E611E023E045E588
:1017200050E067E371E087E499E00E947D0C81302E
:1017300009F043C0F8942FEF3FEF30936C012093F2
:101740006B018093B6011092BB011092BA01A8956B
:1017500090EC88E10FB6F894A895809360000FBED6
:1017600090936000A091B701B091B801CD91CDBF29
:10177000DD91DEBFFF91EF91DF91CF91BF91AF91EE
:101780009F918F917F916F915F914F913F912F9199
:101790001F910F91FF90EF90DF90CF90BF90AF908F
:1017A0009F908F907F906F905F904F903F902F9081
:1017B0001F900F900FBE0F9008950E943A01C0E055
:1017C000D0E02097F1F30E940000FBCFCF92DF9290
:1017D000EF92FF920F931F93CF93DF9300D000D02F
:1017E0001F92CDB7DEB78C017B011D821C8290E079
:1017F000680181E1C80ED11C0FB6F8940F92F80170
:10180000828D8823B9F0C680D780B701C8010E94B5
:101810008A05F801D782C6828189882339F0C801F8
:1018200041960E94B20681110E9434070F900FBEAC
:1018300081E055C02C813D81232B19F40F900FBE00
:101840004DC0911109C08091BC0189838091BA017A
:101850009091BB019B838A830F900FBE0E947905F4
:101860000FB6F8940F92F801858D8F3F09F4158E0D
:10187000F801868D8F3F09F4168E0F900FBEBE01C2
:101880006C5F7F4FCE0101960E94430581111CC001
:10189000C8010E947F05882389F06C817D81C60183
:1018A0000E94A006C8010E94F2060E94F107882348
:1018B00011F091E0A1CF0E943407FBCFC8010E9434
:1018C000F2060E94F107F5CFC8010E94F2060E94BD
:1018D000F107C8010E947F05882359F380E00F902B
:1018E0000F900F900F900F90DF91CF911F910F915C
:1018F000FF90EF90DF90CF9008957F928F929F920C
:10190000AF92BF92CF92DF92EF92FF920F931F930D
:10191000CF93DF93982EC92E762E872EEA01D22EF2
:10192000CA010E94E10A5C01892B09F448C188E2DE
:1019300090E00E94E10A7C010097D9F0DC01589602
:10194000BC92AE925797AE0165EA70E0C5010E9465
:10195000C1102197D7015796ED91FC915897EC0F44
:10196000FD1FB701675E7F4FA72DB82DCD010896EB
:1019700007C0C5010E94360922C1A817B90749F05E
:101980009D014D91EB014993BE01E901288121118F
:10199000F4CFD70190961C922D2D243008F023E02F
:1019A000E7012E8B29A31AA21B861A861D8A1C8A80
:1019B000F986E88684E090E0821B91099D878C87F8
:1019C000FB8AEA8A1BA21CA21DA21EA21FA291E1F1
:1019D0009083DF01119782E28C93119723E32C937C
:1019E00011979C921197CC9211971C92119720E815
:1019F0002C9311971C92119722E02C93119723E0BE
:101A00002C93119724E02C93119725E02C93119798
:101A100026E02C93119727E02C93119728E02C9324
:101A2000119729E02C93119720E12C9311979C9307
:101A3000119792E19C93119793E19C93119794E1F4
:101A40009C93119795E19C93119796E19C93119724
:101A500097E19C93119798E19C93119799E19C933E
:101A6000119790E29C93119791E29C9311978C931C
:101A7000119783E28C9311971C9211971C921197E6
:101A800086E28C93119787E28C93119788E28C936E
:101A9000119789E28C93119780E38C93119781E3DE
:101AA0008C93B697F983E8830115110519F0F801B5
:101AB000F182E0820FB6F8940F928091B9018F5FA6
:101AC0008093B9018091B7019091B801892BD1F52C
:101AD000F092B801E092B7018091B901813009F02C
:101AE00043C081E991E00E9428098AE991E00E94BF
:101AF000280983EA91E00E9428098CEA91E00E947B
:101B000028098FEC91E00E94280986EC91E00E9460
:101B1000280988E891E00E9428098FE791E00E9457
:101B2000280986E791E00E9428098FEC91E09093C4
:101B300075018093740186EC91E09093730180931A
:101B4000720112C08091B60181110EC0E091B701FF
:101B5000F091B8019689D70156968C91891720F09B
:101B6000F092B801E092B7018091D8018F5F809325
:101B7000D801E7018E899091B501981710F48093F0
:101B8000B501D9E08D9FC0011124B7016E5F7F4F71
:101B90008F569E4F0E9418060F900FBE8091B6017F
:101BA000882359F0E091B701F091B8019689F701C7
:101BB0008689981710F40E94340781E001C08FEFE6
:101BC000DF91CF911F910F91FF90EF90DF90CF9019
:101BD000BF90AF909F908F907F900895AF92BF92EB
:101BE000CF92DF92EF92FF920F931F93CF93DF93E9
:101BF00000D000D01F92CDB7DEB78C015B01F42E70
:101C00001D821C8290E0680188E0C80ED11C0FB6CE
:101C1000F8940F92F801228D838D281718F0F2E0C6
:101C2000FF1291C0F801D28C848D81113EC0808159
:101C30009181892B09F075C0E280F380E114F104F1
:101C400011F480E02EC0F70182A1815082A3268981
:101C500091A12917B1F38111F4CF5701F2E0AF0E32
:101C6000B11CC5010E94A705F70191A1968B492FD0
:101C700050E024E030E0241B350B35872487809129
:101C8000B501891710F49093B50129E0249FC00194
:101C9000259F900D1124B5018F569E4F0E94180666
:101CA00081E0F801138212823DC0482F50E0B50157
:101CB000F801F11016C0848195810E94B810F801D6
:101CC000248D84819581820F911D95838483228147
:101CD00033818217930728F18081918195838483D2
:101CE00020C0868197810E94B810F801848D90E011
:101CF00091958195910926813781280F391F378366
:101D00002683408151812417350730F422813381A5
:101D1000820F931F97838683F2E0FF1202C0D110D7
:101D2000DA9480E0D394F801D28E9189992321F03E
:101D3000C80141960E94B20681110E9434070F909B
:101D40000FBE81E055C02C813D81232B19F40F90EB
:101D50000FBE4DC0911109C08091BC018983809153
:101D6000BA019091BB019B838A830F900FBE0E94A2
:101D700079050FB6F8940F92F801858D8F3F09F41D
:101D8000158EF801868D8F3F09F4168E0F900FBEC9
:101D9000BE016C5F7F4FCE0101960E944305811109
:101DA00021C00FB6F8940F92F801928D838D0F9099
:101DB0000FBE981311C06C817D81C6010E94A006E0
:101DC000C8010E94F2060E94F107882311F091E0F9
:101DD0001ECF0E943407FBCFC8010E94F2060E946A
:101DE000F107F5CFC8010E94F2060E94F10780E0DA
:101DF0000F900F900F900F900F90DF91CF911F9148
:101E00000F91FF90EF90DF90CF90BF90AF9008952B
:101E1000EF92FF921F93CF93DF931F92CDB7DEB760
:101E2000182F662321F0869FC001112402C080E094
:101E300090E04F9669830E94E10A7C0169810097D6
:101E400091F1611104C0FC019183808304C04F961D
:101E5000F70191838083F701138F648F0FB6F89495
:101E60000F9220813181938D448D949FC001112464
:101E7000B901680F791F73836283128E35832483BF
:101E8000841B9109820F931F978386838FEF858F21
:101E9000868FC70108960E942809C70141960E94B3
:101EA00028090F900FBEC7010F90DF91CF911F91AE
:101EB000FF90EF900895CF93DF9300D000D01F9252
:101EC000CDB7DEB79C0180917001909171010097B0
:101ED00061F019827B836A833D832C832091B60154
:101EE000222329F020916F0102C080E006C040E06B
:101EF000BE016F5F7F4F0E94EE0D0F900F900F900D
:101F00000F900F90DF91CF910895EE0FFF1F059076
:101F1000F491E02D0994CF93DF938230910510F472
:101F200082E090E0E091DB01F091DC0120E030E024
:101F3000C0E0D0E0309711F1408151814817590736
:101F4000C0F04817590761F482819381209719F0F6
:101F50009B838A832BC09093DC018093DB0126C096
:101F60002115310519F04217530718F49A01BE01E3
:101F7000DF01EF010280F381E02DDCCF2115310577
:101F800009F1281B390B2430310590F412968D91FC
:101F90009C9113976115710521F0FB019383828356
:101FA00004C09093DC018093DB01FD01329644C0B4
:101FB000FD01E20FF31F81939193225031092D937C
:101FC0003C933AC02091D9013091DA01232B41F49E
:101FD00020910201309103013093DA012093D9015D
:101FE00020910001309101012115310541F42DB7F7
:101FF0003EB74091040150910501241B350BE0913F
:10200000D901F091DA01E217F307A0F42E1B3F0B80
:102010002817390778F0AC014E5F5F4F241735075A
:1020200048F04E0F5F1F5093DA014093D90181931E
:10203000919302C0E0E0F0E0CF01DF91CF910895ED
:102040000F931F93CF93DF93009709F48CC0FC018B
:102050003297138212820091DB011091DC0101158D
:10206000110581F420813181820F931F2091D901C4
:102070003091DA012817390779F5F093DA01E09306
:10208000D90171C0D80140E050E0AE17BF0750F44D
:1020900012962D913C911397AD012115310509F14F
:1020A000D901F3CF9D01DA013383228360817181ED
:1020B000860F971F8217930769F4EC0128813981F5
:1020C000260F371F2E5F3F4F318320838A819B81EC
:1020D00093838283452B29F4F093DC01E093DB01A9
:1020E00042C01396FC93EE931297ED0149915991DA
:1020F0009E01240F351FE217F30771F4808191814F
:10210000840F951F029611969C938E9382819381E2
:1021100013969C938E931297E0E0F0E0D80112960C
:102120008D919C911397009719F0F8018C01F6CFCF
:102130008D919C9198012E5F3F4F820F931F2091AC
:10214000D9013091DA012817390769F4309729F459
:102150001092DC011092DB0102C0138212821093F4
:10216000DA010093D901DF91CF911F910F9108956A
:10217000FB01DC0102C001900D9241505040D8F7A4
:102180000895DC0101C06D9341505040E0F708957F
:04219000F894FFCFF1
:102194000000DD01800008090A0B020304054368FE
:1021A40061766573005069736361724C6564730092
:1021B4005069736361724C656444696E616D6963EF
:1021C4006F0049444C4500546D72205376630000FF
:00000001FF
