:100000000C946B000C9488000C9488000C9488006D
:100010000C9488000C9488000C9482040C94880042
:100020000C9488000C9488000C9488000C94880030
:100030000C9488000C9488000C9488000C94880020
:100040000C9490010C9488000C9488000C94880007
:100050000C9488000C9488000C9488000C94880000
:100060000C9488000C948800DC09DC09DC09A709E1
:10007000FF090D0ADC09DC09A709FF0900000000DF
:10008000240027002A0000000000250028002B0083
:1000900000000000230026002900040404040404D6
:1000A0000404020202020202030303030303010227
:1000B00004081020408001020408102001020408F6
:1000C00010200000000800020100000304070000E7
:1000D00000000000000011241FBECFEFD8E0DEBFFB
:1000E000CDBF11E0A0E0B1E0E0E8FEE102C0059084
:1000F0000D92A632B107D9F721E0A6E2B1E001C026
:100100001D92A63BB207E1F70E94F00C0C943E0F43
:100110000C940000E0913A01F0913B018081811143
:1001200003C08FEF9FEF0CC0E0913A01F0913B01CB
:100130000580F681E02D0680F781E02D8281938194
:100140009093310180933001089561E085E00E9431
:1001500003028CE090E00E943A0860E085E00E9493
:1001600003028CE090E00E943A0880E090E00E9458
:100170003A08EBCF88E00E94DA01892B11F461E0A4
:1001800001C060E082E00E94030289E00E94DA017F
:10019000892B11F461E001C060E083E00E9403025A
:1001A0008AE00E94DA01892B11F461E001C060E06D
:1001B00084E00E9403028BE00E94DA01892B41F463
:1001C00081E08093260161E085E00E9403020AC07D
:1001D00080912601882331F060E085E00E940302CF
:1001E0001092260180E090E00E943A08C3CF00E020
:1001F00010E080912901882309F10FB6F8940F923D
:10020000E0914A01F0914B01C681D781CE0102965F
:100210000E94850480917E01815080937E018091AF
:1002200029018150809329010F900FBE8F89988DED
:100230000E946408CE010E946408DBCF80915701C0
:10024000823010F00E944C050115110591F20E94B8
:100250000000CFCF0F931F9361E08DE00E94330227
:1002600061E082E00E94330261E083E00E94330299
:1002700061E084E00E94330261E085E00E94330285
:1002800062E088E00E94330262E089E00E9433026B
:1002900062E08AE00E94330262E08BE00E94330257
:1002A00000E010E021E040E850E066E071E08AEB19
:1002B00090E00E94560B22E040E850E06DE071E0D3
:1002C00085EA90E00E94560B1F910F9108958330AC
:1002D00081F028F4813099F08230A1F008958730C0
:1002E000A9F08830B9F08430D1F4809180008F7DFE
:1002F00003C0809180008F7780938000089584B53B
:100300008F7702C084B58F7D84BD08958091B00041
:100310008F7703C08091B0008F7D8093B0000895E7
:100320001F920F920FB60F9211242F933F938F932A
:100330009F93AF93BF9380919A0190919B01A0915D
:100340009C01B0919D013091990123E0230F2D373D
:1003500020F40196A11DB11D05C026E8230F0296C9
:10036000A11DB11D2093990180939A0190939B0147
:10037000A0939C01B0939D0180919501909196016D
:10038000A0919701B09198010196A11DB11D809394
:10039000950190939601A0939701B0939801BF9116
:1003A000AF919F918F913F912F910F900FBE0F9022
:1003B0001F901895CF93DF93282F30E0F901EE536B
:1003C000FF4F8491F901E255FF4FD491F901E656B0
:1003D000FF4FC491CC2391F081110E946701EC2F53
:1003E000F0E0EE0FFF1FE057FF4FA591B491EC91A5
:1003F000ED2381E090E021F480E002C080E090E015
:10040000DF91CF9108951F93CF93DF93282F30E092
:10041000F901EE53FF4F8491F901E255FF4FD4915A
:10042000F901E656FF4FC491CC23C9F0162F811174
:100430000E946701EC2FF0E0EE0FFF1FEA57FF4F1D
:10044000A591B4918FB7F894111105C09C91ED2F2F
:10045000E095E92302C0EC91ED2BEC938FBFDF9187
:10046000CF911F910895CF93DF9390E0FC01E25567
:10047000FF4F2491FC01E656FF4F8491882361F1E0
:1004800090E0880F991FFC01E458FF4FC591D4916B
:10049000FC01EA57FF4FA591B491611109C09FB7C4
:1004A000F8948881209582238883EC912E230BC0B9
:1004B000623061F49FB7F8943881822F809583234E
:1004C0008883EC912E2B2C939FBF06C08FB7F89496
:1004D000E8812E2B28838FBFDF91CF9108950FB62F
:1004E000F8940F9280913501909136010F900FBED4
:1004F00008950FB6F8940F92FC01928D0F900FBEE5
:1005000081E0911180E008950F920FB6F8940F9258
:100510001F9211242F923F924F925F926F927F927F
:100520008F929F92AF92BF92CF92DF92EF92FF9203
:100530000F931F932F933F934F935F936F937F93EB
:100540008F939F93AF93BF93CF93DF93EF93FF93DB
:10055000A0917C01B0917D010DB60D920EB60D9269
:1005600013BE809132018111F3C0809135019091C9
:10057000360101969093360180933501009799F5E5
:1005800020913A0130913B0140913801509139015D
:1005900050933B0140933A01309339012093380145
:1005A000209137012F5F20933701E0913A01F091BC
:1005B0003B012081211107C02FEF3FEF3093310124
:1005C0002093300110C0E0913A01F0913B01058089
:1005D000F681E02D0680F781E02D22813381309372
:1005E0003101209330012091300130913101821787
:1005F000930710F420E09CC020E019E0E0913A015C
:10060000F0913B013081311107C08FEF9FEF909344
:100610003101809330018CC0E0913A01F0913B01AF
:100620000580F681E02D0680F781E02D428153811F
:100630008417950728F4509331014093300178C016
:10064000AF014E5F5F4FA285B38564817581E680FF
:10065000F780EB01FD82EC82C681D7817B836A83C0
:1006600011966D917C9112976417750721F412967B
:10067000DC93CE931197138612863C9131503C93B4
:100680003C91A489B5891097F9F066857785E08853
:10069000F188EB01FD82EC82C089D1897B836A837A
:1006A0001196ED90FC901297BF01645F7F4FE616A4
:1006B000F70621F41296DC93CE931197158A148ACB
:1006C0003C9131503C933C91A68930917B013A1783
:1006D00010F4A0937B011A9FD0011124BD01695A27
:1006E0007E4F7B01DB011196CD91DC911297D58372
:1006F000C4836C817D81778366836C817D81DB011E
:1007000013965C934E9312975D834C83F386E28637
:10071000E70138813F5F3883A0917C01B0917D0172
:10072000468956963C91431708F468CF21E066CF7E
:10073000E0917C01F0917D01E689D9E0ED9FF00127
:100740001124E95AFE4F8081823040F021E006C03A
:10075000809127018F5F8093270120E080912801FD
:10076000811103C0222309F466C0809132018823DD
:1007700021F081E0809328015EC010922801A091B1
:100780007C01B0917D01E0917C01F0917D012D9182
:100790003C918789908D82179307A8F080917C0106
:1007A00090917D0180917C0190917D01259A2D9AF7
:1007B0002FEF67EA71E6215060407040E1F700C01A
:1007C00000001D9AF5CF80917B0169E001C0815046
:1007D000482F50E0649F9001659F300D1124F9016E
:1007E000E95AFE4F9081992391F3A181B28112962B
:1007F0000D90BC91A02DB283A183265A3E4FA21723
:10080000B30731F412962D913C91139732832183D3
:1008100099E0949FF001959FF00D1124E95AFE4F45
:100820000180F281E02D2681378130937D01209374
:100830007C0180937B01A0917C01B0917D01CD91E1
:10084000CDBFDD91DEBFFF91EF91DF91CF91BF91E1
:10085000AF919F918F917F916F915F914F913F9158
:100860002F911F910F91FF90EF90DF90CF90BF904D
:10087000AF909F908F907F906F905F904F903F9040
:100880002F901F900F900FBE0F900895FC01DB0179
:100890000FB6F8940F924091350150913601818145
:1008A00092812D913C9111972F3F6FEF3607F1F018
:1008B000709137016081761719F048175907C0F415
:1008C000481B590B4217530770F4241B350B2D930B
:1008D0003C9380913701808380913501909136015E
:1008E0009283818303C01D921C9202C080E001C0EC
:1008F00081E00F900FBE0895809132018F5F809349
:10090000320108950E9484021895CF93DF93FC0171
:10091000A085B1858281938124813581EC013D835D
:100920002C83C481D5819B838A8311968D919C9160
:1009300012978E179F0721F41296DC93CE9311978E
:10094000118610868C9181508C938C91DF91CF9180
:100950000895CF93DF939C01FB01DC011196CD91AB
:10096000DC911297D383C2838C819D81958384838C
:100970008C819D81DC0113967C936E9312977D830D
:100980006C8331872087F90180818F5F8083DF91BD
:10099000CF9108950F931F93CF93DF93DC011596AA
:1009A000ED91FC911697C681D7818E01045F1F4F90
:1009B000C8010E94850480913201811114C00A503F
:1009C0001109C8010E9485049E8980917B018917C5
:1009D00010F490937B01B9E09B9FC0011124B801F2
:1009E000895A9E4F03C0B8018EE491E00E94A90489
:1009F000E0917C01F0917D019E898689891720F420
:100A000081E08093280101C080E0DF91CF911F91A8
:100A10000F910895EF92FF920F931F93CF93DF935F
:100A2000EC010FB6F8940F921E8D7C0181E1E80E67
:100A3000F11C01E011165CF48989882341F0C7019B
:100A40000E94CA048111009328011150F3CF8FEF47
:100A50008E8F0F900FBE0FB6F8940F921D8D7E01F2
:100A600088E0E80EF11C01E011165CF4888588230B
:100A700041F0C7010E94CA0481110093280111505E
:100A8000F3CF8FEF8D8F0F900FBEDF91CF911F911E
:100A90000F91FF90EF9008950F920FB6F8940F9278
:100AA0001F9211242F923F924F925F926F927F92EA
:100AB0008F929F92AF92BF92CF92DF92EF92FF926E
:100AC0000F931F932F933F934F935F936F937F9356
:100AD0008F939F93AF93BF93CF93DF93EF93FF9346
:100AE000A0917C01B0917D010DB60D920EB60D92D4
:100AF00080913201882321F081E0809328015EC03B
:100B000010922801A0917C01B0917D01E0917C01BF
:100B1000F0917D012D913C918789908D82179307EB
:100B2000A8F080917C0190917D0180917C01909151
:100B30007D01259A2D9A2FEF87EA91E6215080407A
:100B40009040E1F700C000001D9AF5CF80917B0135
:100B500069E001C08150482F50E0649F9001659F7B
:100B6000300D1124F901E95AFE4F9081992391F338
:100B7000A181B28112960D90BC91A02DB283A18368
:100B8000265A3E4FA217B30731F412962D913C918D
:100B900013973283218399E0949FF001959FF00D84
:100BA0001124E95AFE4F0180F281E02D2681378120
:100BB00030937D0120937C0180937B01A0917C0187
:100BC000B0917D01CD91CDBFDD91DEBFFF91EF9161
:100BD000DF91CF91BF91AF919F918F917F916F9155
:100BE0005F914F913F912F911F910F91FF90EF9047
:100BF000DF90CF90BF90AF909F908F907F906F903D
:100C00005F904F903F902F901F900F900FBE0F90CE
:100C100008958F929F92AF92BF92CF92DF92EF9200
:100C2000FF920F931F93CF93DF930FB6F8940F9219
:100C3000809132018150809332018091320188236A
:100C400011F080E0F2C080917E018823D1F3C0E0F2
:100C5000D0E029E0F22EEE24E39480914E01882327
:100C600051F1E0915301F0915401C681D781CE0139
:100C70000C960E9485048E010E5F1F4FC8010E94D2
:100C800085049E8980917B01891710F490937B01E4
:100C9000F99EC0011124B801895A9E4F0E94A904EF
:100CA000E0917C01F0917D019E8986899817A8F2D8
:100CB000E0922801D2CFCD2B11F00E948A00E09063
:100CC0002701EE2009F4A9C089E0B82EAA24A39434
:100CD000CC24CA94DC2C8091320181118CC0C0914B
:100CE0003501D09136012196D0933601C09335015C
:100CF0002097B9F480913A0190913B0120913801FD
:100D00003091390130933B0120933A01909339019E
:100D100080933801809137018F5F809337010E9463
:100D20008A008091300190913101F12CC817D907C8
:100D300008F451C0E0913A01F0913B0180818111AA
:100D400005C0D0923101C092300145C0E0913A0116
:100D5000F0913B010580F681E02D06811781D801D5
:100D600012968D919C911397C817D90728F49093E8
:100D70003101809330012FC04801B2E08B0E911CED
:100D8000C4010E948504F80184899589892B21F08A
:100D9000C8010C960E948504D80156968C919091BA
:100DA0007B01981710F480937B01B89EC001112439
:100DB000B401895A9E4F0E94A904E0917C01F091F0
:100DC0007D01D80156969C918689981708F4B2CF78
:100DD000FF24F394AFCFE0917C01F0917D01E6898F
:100DE000BE9EF0011124E95AFE4F8081823048F006
:100DF000FF24F39406C0809127018F5F8093270121
:100E0000F12C80912801811101C0F110A0922801DC
:100E1000EA94E11060CF1092270180912801882385
:100E200009F40FCF0E944C0581E00F900FBEDF91B7
:100E3000CF911F910F91FF90EF90DF90CF90BF90D7
:100E4000AF909F908F9008950F931F93CF93DF9350
:100E50008C01FB01808191818F3F2FEF920721F45C
:100E6000E801AF81B8850EC0D801139612962D9176
:100E70003C911397E901488159818417950710F037
:100E8000D901F4CF12968D919C911397938382830D
:100E9000EC01FD83EC83B583A4831396FC93EE935E
:100EA000129711870087F80180818F5F8083DF911F
:100EB000CF911F910F910895EF92FF920F931F937F
:100EC000CF93DF93E0912E01F0912F018081882351
:100ED00069F10580F681E02D00811181C681D781FD
:100EE0007E0182E0E80EF11CC7010E948504E989B9
:100EF000FA89CE0109958E85813021F72C853D85B3
:100F0000200F311F0217130760F43B832A83D98710
:100F1000C887B70180912E0190912F010E9424076C
:100F2000D1CFB801CE010E94C70CCCCF80912C014B
:100F300090912D0190932F0180932E01F0932D011C
:100F4000E0932C01DF91CF911F910F91FF90EF90D3
:100F50000895FC0173836283918780874617570742
:100F600078F0421B530B8485958548175907C8F4C0
:100F7000BF016E5F7F4F80912C0190912D010DC0BC
:100F80004217530718F46217730758F4BF016E5FD6
:100F90007F4F80912E0190912F010E94240780E0C5
:100FA000089581E00895EF92FF920F931F93CF93DE
:100FB000DF931F92CDB7DEB77C0100913501109110
:100FC000360180917C0190917D01029669830E9497
:100FD000850469818FEFE816F80699F4662389F095
:100FE00060917C0170917D016E5F7F4F8CE391E099
:100FF0000F90DF91CF911F910F91FF90EF900C9484
:10100000A904E00EF11EE0917C01F0917D01F382D4
:10101000E28260917C0170917D01E016F10678F426
:1010200080913801909139016E5F7F4F0F90DF9171
:10103000CF911F910F91FF90EF900C942407809116
:101040003A0190913B016E5F7F4F0E94240780918F
:10105000300190913101E816F90620F4F092310147
:10106000E09230010F90DF91CF911F910F91FF908F
:10107000EF900895CF93DF9300D0CDB7DEB7009700
:1010800019F40E944C050DC089839A830E947C0448
:1010900060E089819A810E94D3070E940906882313
:1010A00081F30F900F90DF91CF910895FC0103968B
:1010B000928381832FEF3FEF34832383968385834D
:1010C0009087878310820895CF93DF93009751F024
:1010D000EC010E947C04CE010E94960EDF91CF911C
:1010E0000C940906DF91CF910895CF93DF93CDB78C
:1010F000DEB72C970FB6F894DEBF0FBECDBFE091E0
:101100002E01F0912F018081FF24F394882339F080
:10111000F12C0580F681E02D0081118102C000E0F4
:1011200010E00E947C040E946F026C0180912A01F1
:1011300090912B01C816D90620F40E945C0781E02B
:1011400001C080E0D0922B01C0922A01811175C0AC
:10115000F11031C0C016D106B0F10E940906E0912D
:101160002E01F0912F010580F681E02DE680F780B9
:10117000C70102960E948504D7011E968C911E9786
:10118000813089F41C966D917C911D97600F711FC1
:101190009801A601C7010E94A907882321F0B80180
:1011A000C7010E94C70CD7015196ED91FC9152974F
:1011B000C7010995CCC0E0912C01F0912D018081EF
:1011C000BB24B3948111B12CE0903301F090340131
:1011D0000FB6F8940F92F701858D8F3F09F4158EA5
:1011E000D7015E968C915E978F3F11F45E961C92AC
:1011F0000F900FBEF701828D811115C060917C01A7
:1012000070917D01645F7F4FC70141960E94A904E0
:10121000B11004C0C8018C199D0902C08FEF9FEF67
:101220006B2D0E94D307C7010E940A050E94090680
:1012300081118DC00E944C058AC00E94090687C09A
:10124000911109C0809137018E8380913501909171
:10125000360198878F830F900FBE0E947C040FB6D3
:10126000F8940F92D8015D968C915D978F3F11F4A1
:101270005D961C92F801868D8F3F09F4168E0F90B3
:101280000FBEBE01675F7F4FCE0106960E944604E7
:101290008111D8C0C8010E947902882309F4CCC00A
:1012A000E984FA8460917C0170917D01645F7F4FD5
:1012B000C6010E94240761E0C7010E94D307C8014C
:1012C0000E940A050E940906882309F4B2C091E031
:1012D0000FB6F8940F92F801F28CFF2009F4A1C028
:1012E000448D411140C0FA94F801F28E808581113D
:1012F00054C00F900FBEC980C7FC29C00C811D814E
:10130000D8011A968D919C911B97892B21F0C801C9
:1013100002960E9485040E946F02AC0180912A010E
:1013200090912B014817590730F44B875C870E9436
:101330005C075C854B8550932B0140932A018C2DD3
:10134000CC0C990BAA0BBB0B8A30910580F1009154
:101350003301109134011A86198690E06801B1E1D9
:10136000CB0ED11CB5CF50E086819781840F951F9D
:1013700097838683228133818217930720F08081AF
:10138000918197838683D80116966D917C911797EA
:10139000CE0101960E942E0FA6CFC80108960E948A
:1013A000CA04882309F4A5CF0E944C05A2CFFC01F2
:1013B000EC5CFF4F0C94FB0DEA80FB80F801648528
:1013C00075856E0D7F1D9701C8010E94A9078823AE
:1013D00009F4BDCFD8015196ED91FC915297C80107
:1013E0000995F8018685813009F0B1CF848595850E
:1013F000B701680F791FC8010E94C70CA8CF6A8186
:101400007B81D8011D967C936E931C97640F751F8A
:101410009A01C8010E94A9079ACFC8010E946408D6
:1014200096CF29853A85232B09F00ACF0F900FBE5E
:1014300066CE0E944C054BCFC8010E940A050E944F
:10144000090645CFC8010E940A050E940906C80185
:101450000E947902882309F43ACF51CE0F931F934B
:10146000CF93DF9300D0CDB7DEB789839A830E94F4
:101470007C0489819A810E94010E8C010E940906D8
:101480000115110569F4259A2D9A2FEF80E792E056
:10149000215080409040E1F700C000001D9AF5CF38
:1014A000C8010F900F90DF91CF911F910F91089578
:1014B000AF92BF92CF92DF92EF92FF920F931F9362
:1014C000CF93DF9300D000D01F92CDB7DEB78C0151
:1014D0007B011D821C8290E0580188E0A80EB11C9F
:1014E0000FB6F8940F92F801228D838D281708F01B
:1014F0006DC0D28C448D41113FC080819181892B78
:1015000009F052C0F801E280F380E114F10411F413
:1015100080E02EC0F70182A1815082A3268991A18B
:101520002917B1F38111F4CF5701F2E0AF0EB11CCE
:10153000C5010E948504F70191A1968B492F50E0C7
:1015400024E030E0241B350B3587248780917B0114
:10155000891710F490937B0129E0249FC001259FF7
:10156000900D1124B501895A9E4F0E94A90481E073
:10157000F8011382128219C050E0B701F80184818A
:1015800095810E942E0FF801248D84819581820F10
:10159000911D95838483228133818217930720F0E4
:1015A000808191819583848380E0D394F801D28EE9
:1015B0009189992321F0C80141960E94CA048111A2
:1015C0000E944C050F900FBE81E060C02C813D81D0
:1015D000232B19F40F900FBE58C0911109C08091B0
:1015E0003701898380913501909136019B838A83ED
:1015F0000F900FBE0E947C040FB6F8940F92F80172
:10160000858D8F3F09F4158EF801868D8F3F09F483
:10161000168E0F900FBEBE016C5F7F4FCE010196FC
:101620000E94460481112CC00FB6F8940F92F80165
:10163000928D838D0F900FBE98131CC0CC80DD80DF
:1016400020917C0130917D01B901645F7F4FC5011C
:101650000E94240761E0C6010E94D307C8010E94CE
:101660000A050E940906882311F091E039CF0E94F3
:101670004C05FBCFC8010E940A050E940906F5CF60
:10168000C8010E940A050E94090680E00F900F9091
:101690000F900F900F90DF91CF911F910F91FF90BE
:1016A000EF90DF90CF90BF90AF9008957F928F9290
:1016B0009F92AF92BF92CF92DF92EF92FF920F93E1
:1016C0001F93CF93DF93982EC92E762E872EEA0193
:1016D000D22ECA010E942E0A5C01892B09F448C14E
:1016E00088E290E00E942E0A7C010097D9F0DC018C
:1016F0005896BC92AE925797AE0165EA70E0C5016C
:101700000E94370F2197D7015796ED91FC9158977A
:10171000EC0FFD1FB701675E7F4FA72DB82DCD01E0
:10172000089607C0C5010E94640822C1A817B9071E
:1017300049F09D014D91EB014993BE01E9012881DA
:101740002111F4CFD70190961C922D2D243008F052
:1017500023E0E7012E8B29A31AA21B861A861D8A75
:101760001C8AF986E88684E090E0821B91099D87B7
:101770008C87FB8AEA8A1BA21CA21DA21EA21FA2A2
:1017800091E19083DF01119782E28C93119723E31B
:101790002C9311979C921197CC9211971C921197B0
:1017A00020E82C9311971C92119722E02C9311970B
:1017B00023E02C93119724E02C93119725E02C9390
:1017C000119726E02C93119727E02C93119728E08E
:1017D0002C93119729E02C93119720E12C931197CA
:1017E0009C93119792E19C93119793E19C9311978D
:1017F00094E19C93119795E19C93119796E19C93AA
:10180000119797E19C93119798E19C93119799E117
:101810009C93119790E29C93119791E29C9311975E
:101820008C93119783E28C9311971C9211971C92C1
:10183000119786E28C93119787E28C93119788E237
:101840008C93119789E28C93119780E38C93119775
:1018500081E38C93B697F983E8830115110519F09C
:10186000F801F182E0820FB6F8940F9280917E0128
:101870008F5F80937E0180917C0190917D01892B07
:10188000D1F5F0927D01E0927C0180917E01813062
:1018900009F043C087E591E00E94560880E691E098
:1018A0000E94560889E691E00E94560882E791E07E
:1018B0000E94560887EA91E00E9456088EE991E05E
:1018C0000E9456088EE491E00E94560885E491E05B
:1018D0000E9456088CE391E00E94560887EA91E046
:1018E00090933B0180933A018EE991E09093390106
:1018F0008093380112C08091B10181110EC0E09136
:101900007C01F0917D019689D70156968C918917BB
:1019100020F0F0927D01E0927C018091B0018F5F18
:101920008093B001E7018E8990917B01981710F4A4
:1019300080937B01D9E08D9FC0011124B7016E5FB8
:101940007F4F895A9E4F0E94A9040F900FBE80912D
:10195000B101882359F0E0917C01F0917D019689D5
:10196000F7018689981710F40E944C0581E001C0A8
:101970008FEFDF91CF911F910F91FF90EF90DF904C
:10198000CF90BF90AF909F908F907F900895CF930E
:10199000DF9300D000D01F92CDB7DEB79C018091BD
:1019A000330190913401009761F019827B836A833F
:1019B0003D832C832091B101222329F02091320113
:1019C00002C080E005C0BE016F5F7F4F0E94580AD1
:1019D0000F900F900F900F900F90DF91CF9108957F
:1019E000789484B5826084BD84B5816084BD85B5FA
:1019F000826085BD85B5816085BD80916E00816006
:101A000080936E00109281008091810082608093AB
:101A100081008091810081608093810080918000AD
:101A20008160809380008091B10084608093B100D8
:101A30008091B00081608093B00080917A008460D2
:101A400080937A0080917A00826080937A008091FE
:101A50007A00816080937A0080917A008068809318
:101A60007A001092C1000E942A0103E911E020E0EF
:101A700040EC50E068E171E087EF90E00E94560B87
:101A8000813009F0AFC00FB6F8940F928091330106
:101A900090913401892B09F04BC088E891E00E94B5
:101AA00056088FE791E00E94560888E891E09093ED
:101AB0002F0180932E018FE791E090932D01809369
:101AC0002C0181E590E00E942E0AEC01009761F163
:101AD0004F96998388838AE08B8F85E08C8F0FB631
:101AE000F8940F92288139819B8D4C8D949FC00171
:101AF0001124B901680F791F7B836A831A8E3D8395
:101B00002C83841B9109820F931F9F838E838FEFF9
:101B10008D8F8E8FCE0108960E945608CE01419679
:101B20000E9456080F900FBED0933401C09333012A
:101B30000F900FBE8091330190913401892B09F4ED
:101B400051C001E911E023E045E550E06DE171E0AD
:101B500085E798E00E94560B813009F043C0F89465
:101B60002FEF3FEF30933101209330018093B1018B
:101B70001092360110923501A89590EC88E10FB6CD
:101B8000F894A895809360000FBE90936000A09198
:101B90007C01B0917D01CD91CDBFDD91DEBFFF9184
:101BA000EF91DF91CF91BF91AF919F918F917F91F5
:101BB0006F915F914F913F912F911F910F91FF90E6
:101BC000EF90DF90CF90BF90AF909F908F907F90DD
:101BD0006F905F904F903F902F901F900F900FBE8F
:101BE0000F9008950E942A01C0E0D0E02097F1F301
:101BF0000E940000FBCFEE0FFF1F0590F491E02D37
:101C00000994CF93DF938230910510F482E090E045
:101C1000E091B401F091B50120E030E0C0E0D0E007
:101C2000309711F14081518148175907C0F048178A
:101C3000590761F482819381209719F09B838A83ED
:101C40002BC09093B5018093B40126C021153105B6
:101C500019F04217530718F49A01BE01DF01EF0192
:101C60000280F381E02DDCCF2115310509F1281B1D
:101C7000390B2430310590F412968D919C91139775
:101C80006115710521F0FB019383828304C0909359
:101C9000B5018093B401FD01329644C0FD01E20F0D
:101CA000F31F81939193225031092D933C933AC0B5
:101CB0002091B2013091B301232B41F42091020114
:101CC000309103013093B3012093B20120910001C0
:101CD000309101012115310541F42DB73EB74091F6
:101CE000040150910501241B350BE091B201F091E4
:101CF000B301E217F307A0F42E1B3F0B2817390797
:101D000078F0AC014E5F5F4F2417350748F04E0F57
:101D10005F1F5093B3014093B2018193919302C02E
:101D2000E0E0F0E0CF01DF91CF9108950F931F9392
:101D3000CF93DF93009709F48CC0FC013297138294
:101D400012820091B4011091B5010115110581F4C1
:101D500020813181820F931F2091B2013091B30114
:101D60002817390779F5F093B301E093B20171C0F8
:101D7000D80140E050E0AE17BF0750F412962D9105
:101D80003C911397AD012115310509F1D901F3CF2C
:101D90009D01DA013383228360817181860F971F51
:101DA0008217930769F4EC0128813981260F371FC8
:101DB0002E5F3F4F318320838A819B81938382836F
:101DC000452B29F4F093B501E093B40142C013967A
:101DD000FC93EE931297ED01499159919E01240FC6
:101DE000351FE217F30771F480819181840F951FED
:101DF000029611969C938E938281938113969C9365
:101E00008E931297E0E0F0E0D80112968D919C91AC
:101E10001397009719F0F8018C01F6CF8D919C91E2
:101E200098012E5F3F4F820F931F2091B201309196
:101E3000B3012817390769F4309729F41092B501D6
:101E40001092B40102C0138212821093B301009366
:101E5000B201DF91CF911F910F910895FB01DC0139
:101E600002C001900D9241505040D8F70895DC0116
:101E700001C06D9341505040E0F70895F894FFCFB2
:101E80000000B60180004368617665730050697395
:101E90006361724C6564730049444C4500546D7233
:061EA000205376630000F0
:00000001FF
