:100000000C946B000C9488000C9488000C9488006D
:100010000C9488000C9488000C94AF040C94880015
:100020000C9488000C9488000C9488000C94880030
:100030000C9488000C9488000C9488000C94880020
:100040000C94BD010C9488000C9488000C948800DA
:100050000C9488000C9488000C9488000C94880000
:100060000C9488000C948800ED09ED09ED09B8099D
:10007000100A1E0AED09ED09B809100A0000000077
:1000800023002600290000000000240027002A0089
:1000900000000000250028002B00040404040404D0
:1000A0000404020202020202030303030303010227
:1000B00004081020408001020408102001020408F6
:1000C00010200000000800020100000304070000E7
:1000D00000000000000011241FBECFEFD8E0DEBFFB
:1000E000CDBF11E0A0E0B1E0E2EAFEE102C0059080
:1000F0000D92AE32B107D9F721E0AEE2B1E001C016
:100100001D92A53CB207E1F70E94010D0C944F0F20
:100110000C940000E0914901F0914A018081811125
:1001200003C08FEF9FEF0CC0E0914901F0914A01AD
:100130000580F681E02D0680F781E02D8281938194
:100140009093400180933F010895BB24B39496E0BF
:10015000E92E91E0F92ECEE2D1E00AE011E0C12CC7
:10016000D12CF70121917F0130E0F901EE53FF4FCF
:100170008491F901E255FF4F9490F901E656FF4F43
:10018000A490AA2071F081110E940702EA2DF0E0EC
:10019000EE0FFF1FE458FF4FA591B491EC919E2202
:1001A00099F4B88261E0F80180810E943002FFEF8B
:1001B000CF1ADF0A21960F5F1F4F84E0C816D104C3
:1001C00081F60E947905C3CF8881882381F3C11409
:1001D000D10499F48091320190913301019769F42F
:1001E000809132019091330101968330910574F42E
:1001F00090933301809332010DC060E0F80180815B
:100200000E943002C114D10429F4EACF10923301C4
:10021000109232011882CBCF809134019091350138
:10022000009731F42091320130913301232BF1F406
:10023000FC01E65FFE4F61E080810E9430020E9477
:10024000A90460E08CE090E00E9400080E9436065D
:10025000811102C00E947905E0913401F0913501CD
:10026000E65FFE4F60E080810E94300280913401A1
:10027000909135019C012F5F3F4F2430310529F0CB
:10028000309335012093340105C0039790933501D5
:10029000809334010E947905BFCF00E010E0809187
:1002A0003801882309F10FB6F8940F92E0915901B3
:1002B000F0915A01C681D781CE0102960E94B20404
:1002C00080918D01815080938D0180913801815002
:1002D000809338010F900FBE8F89988D0E9475080A
:1002E000CE010E947508DBCF80916601823010F04C
:1002F0000E9479050115110591F20E940000CFCFEF
:100300000F931F9361E08DE00E94600261E082E044
:100310000E94600261E083E00E94600261E084E08C
:100320000E94600261E085E00E94600262E088E075
:100330000E94600262E089E00E94600262E08AE05E
:100340000E94600262E08BE00E94600200E010E028
:1003500020E040E850E06EE071E085EA90E00E9425
:10036000670B23E040E850E065E171E08CE091E04C
:100370000E94670B1F910F9108951F920F920FB665
:100380000F9211242F933F938F939F93AF93BF931B
:100390008091A9019091AA01A091AB01B091AC010B
:1003A0003091A80123E0230F2D3720F40196A11DE1
:1003B000B11D05C026E8230F0296A11DB11D209393
:1003C000A8018093A9019093AA01A093AB01B093D7
:1003D000AC018091A4019091A501A091A601B091DA
:1003E000A7010196A11DB11D8093A4019093A501C1
:1003F000A093A601B093A701BF91AF919F918F9158
:100400003F912F910F900FBE0F901F901895833042
:1004100081F028F4813099F08230A1F0089587307E
:10042000A9F08830B9F08430D1F4809180008F7DBC
:1004300003C0809180008F7780938000089584B5F9
:100440008F7702C084B58F7D84BD08958091B00000
:100450008F7703C08091B0008F7D8093B0000895A6
:100460001F93CF93DF93282F30E0F901EE53FF4F16
:100470008491F901E255FF4FD491F901E656FF4FFF
:10048000C491CC23C9F0162F81110E940702EC2FD2
:10049000F0E0EE0FFF1FE057FF4FA591B4918FB72B
:1004A000F894111105C09C91ED2FE095E92302C04D
:1004B000EC91ED2BEC938FBFDF91CF911F910895BD
:1004C000CF93DF9390E0FC01E255FF4F2491FC01B4
:1004D000E656FF4F8491882361F190E0880F991FC1
:1004E000FC01EA57FF4FC591D491FC01E057FF4F43
:1004F000A591B491611109C09FB7F89488812095A6
:1005000082238883EC912E230BC0623061F49FB765
:10051000F8943881822F809583238883EC912E2B49
:100520002C939FBF06C08FB7F894E8812E2B2883A9
:100530008FBFDF91CF9108950FB6F8940F928091FD
:100540004401909145010F900FBE08950FB6F894A5
:100550000F92FC01928D0F900FBE81E0911180E00F
:1005600008950F920FB6F8940F921F9211242F92B4
:100570003F924F925F926F927F928F929F92AF9233
:10058000BF92CF92DF92EF92FF920F931F932F9320
:100590003F934F935F936F937F938F939F93AF930B
:1005A000BF93CF93DF93EF93FF93A0918B01B09113
:1005B0008C010DB60D920EB60D9213BE80914101C5
:1005C0008111F3C08091440190914501019690936F
:1005D000450180934401009799F52091490130919C
:1005E0004A01409147015091480150934A0140937C
:1005F00049013093480120934701209146012F5F24
:1006000020934601E0914901F0914A012081211196
:1006100007C02FEF3FEF3093400120933F0110C000
:10062000E0914901F0914A010580F681E02D0680B4
:10063000F781E02D228133813093400120933F01E7
:1006400020913F01309140018217930710F420E080
:100650009CC020E019E0E0914901F0914A0130810D
:10066000311107C08FEF9FEF9093400180933F01BE
:100670008CC0E0914901F0914A010580F681E02D9E
:100680000680F781E02D428153818417950728F475
:100690005093400140933F0178C0AF014E5F5F4FE0
:1006A000A285B38564817581E680F780EB01FD82C8
:1006B000EC82C681D7817B836A8311966D917C9190
:1006C00012976417750721F41296DC93CE93119755
:1006D000138612863C9131503C933C91A489B58994
:1006E0001097F9F066857785E088F188EB01FD8247
:1006F000EC82C089D1897B836A831196ED90FC904E
:100700001297BF01645F7F4FE616F70621F4129639
:10071000DC93CE931197158A148A3C9131503C9307
:100720003C91A68930918A013A1710F4A0938A016E
:100730001A9FD0011124BD016A597E4F7B01DB0154
:100740001196CD91DC911297D583C4836C817D8104
:10075000778366836C817D81DB0113965C934E9376
:1007600012975D834C83F386E286E70138813F5F11
:100770003883A0918B01B0918C01468956963C91AB
:10078000431708F468CF21E066CFE0918B01F09128
:100790008C01E689D9E0ED9FF0011124EA59FE4F62
:1007A0008081823040F021E006C0809136018F5F69
:1007B0008093360120E080913701811103C022230C
:1007C00009F466C080914101882321F081E0809383
:1007D00037015EC010923701A0918B01B0918C015E
:1007E000E0918B01F0918C012D913C918789908D46
:1007F00082179307A8F080918B0190918C018091D2
:100800008B0190918C01259A2D9A2FEF67EA71E662
:10081000215060407040E1F700C000001D9AF5CF04
:1008200080918A0169E001C08150482F50E0649FA7
:100830009001659F300D1124F901EA59FE4F908116
:10084000992391F3A181B28112960D90BC91A02DB4
:10085000B283A18327593E4FA217B30731F41296F2
:100860002D913C9113973283218399E0949FF0015D
:10087000959FF00D1124EA59FE4F0180F281E02D81
:100880002681378130938C0120938B0180938A01DC
:10089000A0918B01B0918C01CD91CDBFDD91DEBFD8
:1008A000FF91EF91DF91CF91BF91AF919F918F9188
:1008B0007F916F915F914F913F912F911F910F9178
:1008C000FF90EF90DF90CF90BF90AF909F908F9070
:1008D0007F906F905F904F903F902F901F900F9060
:1008E0000FBE0F900895FC01DB010FB6F8940F9234
:1008F0004091440150914501818192812D913C911B
:1009000011972F3F6FEF3607F1F07091460160812C
:10091000761719F048175907C0F4481B590B4217AE
:10092000530770F4241B350B2D933C9380914601A3
:10093000808380914401909145019283818303C01B
:100940001D921C9202C080E001C081E00F900FBE9A
:100950000895809141018F5F8093410108950E9425
:10096000B1021895CF93DF93FC01A085B1858281F8
:10097000938124813581EC013D832C83C481D58111
:100980009B838A8311968D919C9112978E179F0756
:1009900021F41296DC93CE931197118610868C91D8
:1009A00081508C938C91DF91CF910895CF93DF93F9
:1009B0009C01FB01DC011196CD91DC911297D38350
:1009C000C2838C819D81958384838C819D81DC0190
:1009D00013967C936E9312977D836C833187208767
:1009E000F90180818F5F8083DF91CF9108950F930C
:1009F0001F93CF93DF93DC011596ED91FC91169731
:100A0000C681D7818E01045F1F4FC8010E94B204C6
:100A100080914101811114C00A501109C8010E943E
:100A2000B2049E8980918A01891710F490938A01FB
:100A3000B9E09B9FC0011124B8018A599E4F03C0A1
:100A4000B8018DE591E00E94D604E0918B01F09110
:100A50008C019E898689891720F481E08093370173
:100A600001C080E0DF91CF911F910F910895EF9227
:100A7000FF920F931F93CF93DF93EC010FB6F8947F
:100A80000F921E8D7C0181E1E80EF11C01E0111630
:100A90005CF48989882341F0C7010E94F704811121
:100AA000009337011150F3CF8FEF8E8F0F900FBE51
:100AB0000FB6F8940F921D8D7E0188E0E80EF11CB0
:100AC00001E011165CF48885882341F0C7010E947B
:100AD000F7048111009337011150F3CF8FEF8D8F01
:100AE0000F900FBEDF91CF911F910F91FF90EF906C
:100AF00008950F920FB6F8940F921F9211242F921F
:100B00003F924F925F926F927F928F929F92AF929D
:100B1000BF92CF92DF92EF92FF920F931F932F938A
:100B20003F934F935F936F937F938F939F93AF9375
:100B3000BF93CF93DF93EF93FF93A0918B01B0917D
:100B40008C010DB60D920EB60D9280914101882355
:100B500021F081E0809337015EC010923701A091AF
:100B60008B01B0918C01E0918B01F0918C012D9162
:100B70003C918789908D82179307A8F080918B0113
:100B800090918C0180918B0190918C01259A2D9AE6
:100B90002FEF87EA91E6215080409040E1F700C0B6
:100BA00000001D9AF5CF80918A0169E001C0815053
:100BB000482F50E0649F9001659F300D1124F9018A
:100BC000EA59FE4F9081992391F3A181B281129647
:100BD0000D90BC91A02DB283A18327593E4FA2173F
:100BE000B30731F412962D913C91139732832183F0
:100BF00099E0949FF001959FF00D1124EA59FE4F62
:100C00000180F281E02D2681378130938C01209381
:100C10008B0180938A01A0918B01B0918C01CD91C1
:100C2000CDBFDD91DEBFFF91EF91DF91CF91BF91FD
:100C3000AF919F918F917F916F915F914F913F9174
:100C40002F911F910F91FF90EF90DF90CF90BF9069
:100C5000AF909F908F907F906F905F904F903F905C
:100C60002F901F900F900FBE0F9008958F929F921C
:100C7000AF92BF92CF92DF92EF92FF920F931F93AA
:100C8000CF93DF930FB6F8940F928091410181507A
:100C90008093410180914101882311F080E0F2C0EE
:100CA00080918D018823D1F3C0E0D0E029E0F22EBD
:100CB000EE24E39480915D01882351F1E09162017B
:100CC000F0916301C681D781CE010C960E94B204D7
:100CD0008E010E5F1F4FC8010E94B2049E89809151
:100CE0008A01891710F490938A01F99EC00111249A
:100CF000B8018A599E4F0E94D604E0918B01F09171
:100D00008C019E8986899817A8F2E0923701D2CF8C
:100D1000CD2B11F00E948A00E0903601EE2009F4FC
:100D2000A9C089E0B82EAA24A394CC24CA94DC2CB0
:100D30008091410181118CC0C0914401D091450145
:100D40002196D0934501C09344012097B9F4809136
:100D5000490190914A012091470130914801309317
:100D60004A01209349019093480180934701809163
:100D700046018F5F809346010E948A0080913F0167
:100D800090914001F12CC817D90708F451C0E091A7
:100D90004901F0914A018081811105C0D092400142
:100DA000C0923F0145C0E0914901F0914A010580A0
:100DB000F681E02D06811781D80112968D919C91C4
:100DC0001397C817D90728F49093400180933F01E7
:100DD0002FC04801B2E08B0E911CC4010E94B204E6
:100DE000F80184899589892B21F0C8010C960E940D
:100DF000B204D80156968C9190918A01981710F4FC
:100E000080938A01B89EC0011124B4018A599E4F73
:100E10000E94D604E0918B01F0918C01D801569686
:100E20009C918689981708F4B2CFFF24F394AFCF32
:100E3000E0918B01F0918C01E689BE9EF0011124B6
:100E4000EA59FE4F8081823048F0FF24F39406C0B7
:100E5000809136018F5F80933601F12C80913701AC
:100E6000811101C0F110A0923701EA94E11060CF26
:100E70001092360180913701882309F40FCF0E9428
:100E8000790581E00F900FBEDF91CF911F910F91F7
:100E9000FF90EF90DF90CF90BF90AF909F908F909A
:100EA00008950F931F93CF93DF938C01FB018081F3
:100EB00091818F3F2FEF920721F4E801AF81B88530
:100EC0000EC0D801139612962D913C911397E9010B
:100ED000488159818417950710F0D901F4CF1296F3
:100EE0008D919C91139793838283EC01FD83EC8316
:100EF000B583A4831396FC93EE9312971187008712
:100F0000F80180818F5F8083DF91CF911F910F91D6
:100F10000895EF92FF920F931F93CF93DF93E09189
:100F20003D01F0913E018081882369F10580F681C1
:100F3000E02D00811181C681D7817E0182E0E80E1B
:100F4000F11CC7010E94B204E989FA89CE01099512
:100F50008E85813021F72C853D85200F311F0217AA
:100F6000130760F43B832A83D987C887B701809130
:100F70003D0190913E010E945107D1CFB801CE01B1
:100F80000E94D80CCCCF80913B0190913C01909372
:100F90003E0180933D01F0933C01E0933B01DF91E2
:100FA000CF911F910F91FF90EF900895FC017383F3
:100FB0006283918780874617570778F0421B530B4F
:100FC0008485958548175907C8F4BF016E5F7F4F28
:100FD00080913B0190913C010DC04217530718F4DA
:100FE0006217730758F4BF016E5F7F4F80913D0118
:100FF00090913E010E94510780E0089581E008959C
:10100000EF92FF920F931F93CF93DF931F92CDB771
:10101000DEB77C01009144011091450180918B0164
:1010200090918C01029669830E94B20469818FEFCE
:10103000E816F80699F4662389F060918B017091A7
:101040008C016E5F7F4F8BE491E00F90DF91CF9129
:101050001F910F91FF90EF900C94D604E00EF11EBB
:10106000E0918B01F0918C01F382E28260918B011F
:1010700070918C01E016F10678F48091470190910F
:1010800048016E5F7F4F0F90DF91CF911F910F91BD
:10109000FF90EF900C9451078091490190914A0183
:1010A0006E5F7F4F0E94510780913F0190914001F8
:1010B000E816F90620F4F0924001E0923F010F900B
:1010C000DF91CF911F910F91FF90EF900895FC0158
:1010D0000396928381832FEF3FEF3483238396839C
:1010E00085839087878310820895CF93DF9300973D
:1010F00051F0EC010E94A904CE010E94A70EDF91DD
:10110000CF910C943606DF91CF910895CF93DF9362
:10111000CDB7DEB72C970FB6F894DEBF0FBECDBFAC
:10112000E0913D01F0913E018081FF24F3948823FA
:1011300039F0F12C0580F681E02D0081118102C08B
:1011400000E010E00E94A9040E949C026C018091C2
:10115000390190913A01C816D90620F40E948907F6
:1011600081E001C080E0D0923A01C0923901811142
:1011700075C0F11031C0C016D106B0F10E9436061C
:10118000E0913D01F0913E010580F681E02DE68081
:10119000F780C70102960E94B204D7011E968C9177
:1011A0001E97813089F41C966D917C911D97600F7C
:1011B000711F9801A601C7010E94D607882321F05C
:1011C000B801C7010E94D80CD7015196ED91FC914E
:1011D0005297C7010995CCC0E0913B01F0913C01C9
:1011E0008081BB24B3948111B12CE0904201F09036
:1011F00043010FB6F8940F92F701858D8F3F09F4E4
:10120000158ED7015E968C915E978F3F11F45E9696
:101210001C920F900FBEF701828D811115C0609155
:101220008B0170918C01645F7F4FC70141960E94D2
:10123000D604B11004C0C8018C199D0902C08FEFFB
:101240009FEF6B2D0E940008C7010E9437050E9486
:10125000360681118DC00E9479058AC00E9436062B
:1012600087C0911109C0809146018E83809144010D
:101270009091450198878F830F900FBE0E94A9041B
:101280000FB6F8940F92D8015D968C915D978F3FC1
:1012900011F45D961C92F801868D8F3F09F4168E2D
:1012A0000F900FBEBE01675F7F4FCE0106960E9472
:1012B00073048111D8C0C8010E94A602882309F4D2
:1012C000CCC0E984FA8460918B0170918C01645FD9
:1012D0007F4FC6010E94510761E0C7010E940008CC
:1012E000C8010E9437050E943606882309F4B2C05F
:1012F00091E00FB6F8940F92F801F28CFF2009F4F8
:10130000A1C0448D411140C0FA94F801F28E80854D
:10131000811154C00F900FBEC980C7FC29C00C8139
:101320001D81D8011A968D919C911B97892B21F0D4
:10133000C80102960E94B2040E949C02AC018091F6
:10134000390190913A014817590730F44B875C876F
:101350000E9489075C854B8550933A01409339017F
:101360008C2DCC0C990BAA0BBB0B8A30910580F10C
:1013700000914201109143011A86198690E068019C
:10138000B1E1CB0ED11CB5CF50E086819781840F9F
:10139000951F97838683228133818217930720F0DC
:1013A0008081918197838683D80116966D917C9177
:1013B0001797CE0101960E943F0FA6CFC80108964D
:1013C0000E94F704882309F4A5CF0E947905A2CFD3
:1013D000FC01EC5CFF4F0C940C0EEA80FB80F801E2
:1013E000648575856E0D7F1D9701C8010E94D60723
:1013F000882309F4BDCFD8015196ED91FC91529705
:10140000C8010995F8018685813009F0B1CF84853E
:101410009585B701680F791FC8010E94D80CA8CF25
:101420006A817B81D8011D967C936E931C97640F13
:10143000751F9A01C8010E94D6079ACFC8010E9461
:10144000750896CF29853A85232B09F00ACF0F908E
:101450000FBE66CE0E9479054BCFC8010E943705AA
:101460000E94360645CFC8010E9437050E94360605
:10147000C8010E94A602882309F43ACF51CE0F93E7
:101480001F93CF93DF9300D0CDB7DEB789839A83C4
:101490000E94A90489819A810E94120E8C010E94E7
:1014A00036060115110569F4259A2D9A2FEF80E76C
:1014B00092E0215080409040E1F700C000001D9A6A
:1014C000F5CFC8010F900F90DF91CF911F910F9131
:1014D0000895AF92BF92CF92DF92EF92FF920F9357
:1014E0001F93CF93DF9300D000D01F92CDB7DEB70C
:1014F0008C017B011D821C8290E0580188E0A80EBF
:10150000B11C0FB6F8940F92F801228D838D281725
:1015100008F06DC0D28C448D41113FC08081918113
:10152000892B09F052C0F801E280F380E114F10444
:1015300011F480E02EC0F70182A1815082A3268998
:1015400091A12917B1F38111F4CF5701F2E0AF0E49
:10155000B11CC5010E94B204F70191A1968B492FDD
:1015600050E024E030E0241B350B35872487809140
:101570008A01891710F490938A0129E0249FC00101
:10158000259F900D1124B5018A599E4F0E94D604C3
:1015900081E0F8011382128219C050E0B701F8010E
:1015A000848195810E943F0FF801248D848195816B
:1015B000820F911D95838483228133818217930743
:1015C00020F0808191819583848380E0D394F80119
:1015D000D28E9189992321F0C80141960E94F70487
:1015E00081110E9479050F900FBE81E060C02C81AF
:1015F0003D81232B19F40F900FBE58C0911109C0E3
:1016000080914601898380914401909145019B839B
:101610008A830F900FBE0E94A9040FB6F8940F9210
:10162000F801858D8F3F09F4158EF801868D8F3F67
:1016300009F4168E0F900FBEBE016C5F7F4FCE0176
:1016400001960E94730481112CC00FB6F8940F927A
:10165000F801928D838D0F900FBE98131CC0CC8023
:10166000DD8020918B0130918C01B901645F7F4F47
:10167000C5010E94510761E0C6010E940008C8012F
:101680000E9437050E943606882311F091E039CF79
:101690000E947905FBCFC8010E9437050E943606DB
:1016A000F5CFC8010E9437050E94360680E00F90F2
:1016B0000F900F900F900F90DF91CF911F910F918E
:1016C000FF90EF90DF90CF90BF90AF9008957F9202
:1016D0008F929F92AF92BF92CF92DF92EF92FF9242
:1016E0000F931F93CF93DF93982EC92E762E872EBC
:1016F000EA01D22ECA010E943F0A5C01892B09F43B
:1017000048C188E290E00E943F0A7C010097D9F02E
:10171000DC015896BC92AE925797AE0165EA70E034
:10172000C5010E94480F2197D7015796ED91FC9172
:101730005897EC0FFD1FB701675E7F4FA72DB82D9F
:10174000CD01089607C0C5010E94750822C1A817DF
:10175000B90749F09D014D91EB014993BE01E901A3
:1017600028812111F4CFD70190961C922D2D243081
:1017700008F023E0E7012E8B29A31AA21B861A8604
:101780001D8A1C8AF986E88684E090E0821B910914
:101790009D878C87FB8AEA8A1BA21CA21DA21EA21F
:1017A0001FA291E19083DF01119782E28C93119740
:1017B00023E32C9311979C921197CC9211971C9232
:1017C000119720E82C9311971C92119722E02C93EB
:1017D000119723E02C93119724E02C93119725E087
:1017E0002C93119726E02C93119727E02C931197B7
:1017F00028E02C93119729E02C93119720E12C934A
:1018000011979C93119792E19C93119793E19C936C
:10181000119794E19C93119795E19C93119796E110
:101820009C93119797E19C93119798E19C93119742
:1018300099E19C93119790E29C93119791E29C936C
:1018400011978C93119783E28C9311971C921197A7
:101850001C92119786E28C93119787E28C931197D3
:1018600088E28C93119789E28C93119780E38C9393
:10187000119781E38C93B697F983E88301151105DD
:1018800019F0F801F182E0820FB6F8940F9280917E
:101890008D018F5F80938D0180918B0190918C01E0
:1018A000892BD1F5F0928C01E0928B0180918D0112
:1018B000813009F043C086E691E00E9467088FE618
:1018C00091E00E94670888E791E00E94670881E83C
:1018D00091E00E94670886EB91E00E9467088DEA1C
:1018E00091E00E9467088DE591E00E94670884E519
:1018F00091E00E9467088BE491E00E94670886EB04
:1019000091E090934A01809349018DEA91E0909390
:1019100048018093470112C08091C00181110EC01F
:10192000E0918B01F0918C019689D70156968C91AC
:10193000891720F0F0928C01E0928B018091BF0119
:101940008F5F8093BF01E7018E8990918A0198177C
:1019500010F480938A01D9E08D9FC0011124B70152
:101960006E5F7F4F8A599E4F0E94D6040F900FBE24
:101970008091C001882359F0E0918B01F0918C0196
:101980009689F7018689981710F40E94790581E0FD
:1019900001C08FEFDF91CF911F910F91FF90EF90DA
:1019A000DF90CF90BF90AF909F908F907F900895E1
:1019B000CF93DF9300D000D01F92CDB7DEB79C014C
:1019C0008091420190914301009761F019827B83DD
:1019D0006A833D832C832091C001222329F020912A
:1019E000410102C080E005C0BE016F5F7F4F0E94D1
:1019F000690A0F900F900F900F900F90DF91CF9189
:101A00000895789484B5826084BD84B5816084BD76
:101A100085B5826085BD85B5816085BD80916E008C
:101A2000816080936E0010928100809181008260BD
:101A300080938100809181008160809381008091FA
:101A400080008160809380008091B10084608093E9
:101A5000B1008091B00081608093B00080917A00E5
:101A6000846080937A0080917A00826080937A000B
:101A700080917A00816080937A0080917A008068FA
:101A800080937A001092C1000E94800102EA11E066
:101A900020E040EC50E060E271E08DE491E00E94D3
:101AA000670B813009F0AFC00FB6F8940F928091A8
:101AB000420190914301892B09F04BC087E991E0E5
:101AC0000E9467088EE891E00E94670887E991E02C
:101AD00090933E0180933D018EE891E090933C010C
:101AE00080933B0181E590E00E943F0AEC01009762
:101AF00061F14F96998388838AE08B8F85E08C8F84
:101B00000FB6F8940F92288139819B8D4C8D949F4C
:101B1000C0011124B901680F791F7B836A831A8E73
:101B20003D832C83841B9109820F931F9F838E8397
:101B30008FEF8D8F8E8FCE0108960E946708CE01A1
:101B400041960E9467080F900FBED0934301C09347
:101B500042010F900FBE8091420190914301892B69
:101B600009F451C000EA11E023E045E550E065E2E8
:101B700071E086E898E00E94670B813009F043C06D
:101B8000F8942FEF3FEF3093400120933F01809373
:101B9000C0011092450110924401A89590EC88E193
:101BA0000FB6F894A895809360000FBE90936000E4
:101BB000A0918B01B0918C01CD91CDBFDD91DEBFA5
:101BC000FF91EF91DF91CF91BF91AF919F918F9155
:101BD0007F916F915F914F913F912F911F910F9145
:101BE000FF90EF90DF90CF90BF90AF909F908F903D
:101BF0007F906F905F904F903F902F901F900F902D
:101C00000FBE0F9008950E948001C0E0D0E02097A1
:101C1000F1F30E940000FBCFEE0FFF1F0590F4913F
:101C2000E02D0994CF93DF938230910510F482E088
:101C300090E0E091C301F091C40120E030E0C0E009
:101C4000D0E0309711F14081518148175907C0F019
:101C50004817590761F482819381209719F09B837B
:101C60008A832BC09093C4018093C30126C02115A1
:101C7000310519F04217530718F49A01BE01DF012C
:101C8000EF010280F381E02DDCCF2115310509F150
:101C9000281B390B2430310590F412968D919C91BC
:101CA00013976115710521F0FB019383828304C0B2
:101CB0009093C4018093C301FD01329644C0FD019D
:101CC000E20FF31F81939193225031092D933C939E
:101CD0003AC02091C1013091C201232B41F42091DF
:101CE0000201309103013093C2012093C101209180
:101CF0000001309101012115310541F42DB73EB7A6
:101D00004091040150910501241B350BE091C10164
:101D1000F091C201E217F307A0F42E1B3F0B281726
:101D2000390778F0AC014E5F5F4F2417350748F054
:101D30004E0F5F1F5093C2014093C1018193919355
:101D400002C0E0E0F0E0CF01DF91CF9108950F9362
:101D50001F93CF93DF93009709F48CC0FC01329757
:101D6000138212820091C3011091C4010115110563
:101D700081F420813181820F931F2091C101309124
:101D8000C2012817390779F5F093C201E093C10128
:101D900071C0D80140E050E0AE17BF0750F4129672
:101DA0002D913C911397AD012115310509F1D90110
:101DB000F3CF9D01DA013383228360817181860F25
:101DC000971F8217930769F4EC0128813981260F48
:101DD000371F2E5F3F4F318320838A819B819383FE
:101DE0008283452B29F4F093C401E093C30142C0E0
:101DF0001396FC93EE931297ED01499159919E0130
:101E0000240F351FE217F30771F480819181840F4D
:101E1000951F029611969C938E93828193811396BF
:101E20009C938E931297E0E0F0E0D80112968D918A
:101E30009C911397009719F0F8018C01F6CF8D91C2
:101E40009C9198012E5F3F4F820F931F2091C101FB
:101E50003091C2012817390769F4309729F410929C
:101E6000C4011092C30102C0138212821093C201F6
:101E70000093C101DF91CF911F910F910895FB0154
:101E8000DC0102C001900D9241505040D8F70895F6
:101E9000DC0101C06D9341505040E0F70895F89483
:021EA000FFCF72
:101EA2000000C501800008090A0B0203040543680B
:101EB20061766573005069736361724C6564730087
:0E1EC20049444C4500546D7220537663000075
:00000001FF
