:100000000C946B000C9488000C9488000C9488006D
:100010000C9488000C9488000C94CF040C948800F5
:100020000C9488000C9488000C9488000C94880030
:100030000C9488000C9488000C9488000C94880020
:100040000C94DD010C9488000C9488000C948800BA
:100050000C9488000C9488000C9488000C94880000
:100060000C9488000C948800290A290A290AF409AA
:100070004C0A5A0A290A290AF4094C0A000000000D
:1000800023002600290000000000240027002A0089
:1000900000000000250028002B00040404040404D0
:1000A0000404020202020202030303030303010227
:1000B00004081020408001020408102001020408F6
:1000C00010200000000800020100000304070000E7
:1000D00000000000000011241FBECFEFD8E0DEBFFB
:1000E000CDBF11E0A0E0B1E0EAE1FFE102C0059080
:1000F0000D92A034B107D9F721E0A0E4B1E001C02E
:100100001D92A73DB207E1F70E943D0D0C948B0FA5
:100110000C940000E0915B01F0915C018081811101
:1001200003C08FEF9FEF0CC0E0915B01F0915C0189
:100130000580F681E02D0680F781E02D8281938194
:1001400090935201809351010895809146019091BE
:100150004701009731F42091440130914501232B50
:10016000A9F4FC01E65FFE4F61E080810E9450022D
:100170008CE090E00E948708E0914601F0914701F1
:10018000E65FFE4F60E080810E9450028091460150
:10019000909147019C012F5F3F4F2430310529F09A
:1001A000309347012093460105C003979093470180
:1001B0008093460180E090E00E948708C6CF80913E
:1001C0004401909145018130910511F461E00BC02B
:1001D000029761F461E082E00E94500286E090E0C4
:1001E0000E94870860E082E00E94500280E090E078
:1001F0000E948708E4CFBB24B39496E0E92E91E0F7
:10020000F92EC0E4D1E00AE011E0C12CD12CF701B5
:1002100021917F0130E0F901EE53FF4F8491F90104
:10022000E255FF4F9490F901E656FF4FA490AA20A3
:1002300081F181110E942702EA2DF0E0EE0FFF1FED
:10024000E458FF4FA591B491EC919E2211F1888161
:10025000882379F0C114D10431F480914401909144
:100260004501892B31F460E0F80180810E94500241
:100270001882FFEFCF1ADF0A21960F5F1F4F84E02D
:10028000C816D10409F0C3CF80E090E00E9487082F
:10029000B4CFC114D10489F48091440190914501F7
:1002A00001968330910529F0909345018093440194
:1002B00004C01092450110924401B88261E0F80137
:1002C00080810E945002D5CF00E010E080914A0169
:1002D000882309F10FB6F8940F92E0916B01F09129
:1002E0006C01C681D781CE0102960E94D204809112
:1002F0009F01815080939F0180914A01815080939A
:100300004A010F900FBE8F89988D0E94B108CE01CF
:100310000E94B108DBCF80917801823010F00E94FA
:1003200099050115110591F20E940000CFCF0F939E
:100330001F9361E08DE00E94800261E082E00E94F4
:10034000800261E083E00E94800261E084E00E941C
:10035000800261E085E00E94800262E088E00E9405
:10036000800262E089E00E94800262E08AE00E94EE
:10037000800262E08BE00E94800200E010E021E059
:1003800040E850E06EE071E08BEF90E00E94A30B3C
:1003900022E040E850E065E171E08FED90E00E94DE
:1003A000A30B23E040E850E067E271E085EA90E0CB
:1003B0000E94A30B1F910F9108951F920F920FB6E9
:1003C0000F9211242F933F938F939F93AF93BF93DB
:1003D0008091BB019091BC01A091BD01B091BE0183
:1003E0003091BA0123E0230F2D3720F40196A11D8F
:1003F000B11D05C026E8230F0296A11DB11D209353
:10040000BA018093BB019093BC01A093BD01B0934E
:10041000BE018091B6019091B701A091B801B09151
:10042000B9010196A11DB11D8093B6019093B7014A
:10043000A093B801B093B901BF91AF919F918F91F3
:100440003F912F910F900FBE0F901F901895833002
:1004500081F028F4813099F08230A1F0089587303E
:10046000A9F08830B9F08430D1F4809180008F7D7C
:1004700003C0809180008F7780938000089584B5B9
:100480008F7702C084B58F7D84BD08958091B000C0
:100490008F7703C08091B0008F7D8093B000089566
:1004A0001F93CF93DF93282F30E0F901EE53FF4FD6
:1004B0008491F901E255FF4FD491F901E656FF4FBF
:1004C000C491CC23C9F0162F81110E942702EC2F72
:1004D000F0E0EE0FFF1FE057FF4FA591B4918FB7EB
:1004E000F894111105C09C91ED2FE095E92302C00D
:1004F000EC91ED2BEC938FBFDF91CF911F9108957D
:10050000CF93DF9390E0FC01E255FF4F2491FC0173
:10051000E656FF4F8491882361F190E0880F991F80
:10052000FC01EA57FF4FC591D491FC01E057FF4F02
:10053000A591B491611109C09FB7F8948881209565
:1005400082238883EC912E230BC0623061F49FB725
:10055000F8943881822F809583238883EC912E2B09
:100560002C939FBF06C08FB7F894E8812E2B288369
:100570008FBFDF91CF9108950FB6F8940F928091BD
:100580005601909157010F900FBE08950FB6F89441
:100590000F92FC01928D0F900FBE81E0911180E0CF
:1005A00008950F920FB6F8940F921F9211242F9274
:1005B0003F924F925F926F927F928F929F92AF92F3
:1005C000BF92CF92DF92EF92FF920F931F932F93E0
:1005D0003F934F935F936F937F938F939F93AF93CB
:1005E000BF93CF93DF93EF93FF93A0919D01B091C1
:1005F0009E010DB60D920EB60D9213BE8091530161
:100600008111F3C08091560190915701019690930A
:10061000570180935601009799F520915B01309125
:100620005C014091590150915A0150935C014093F3
:100630005B0130935A0120935901209158012F5F9B
:1006400020935801E0915B01F0915C012081211120
:1006500007C02FEF3FEF309352012093510110C09C
:10066000E0915B01F0915C010580F681E02D068050
:10067000F781E02D22813381309352012093510183
:1006800020915101309152018217930710F420E01C
:100690009CC020E019E0E0915B01F0915C013081A9
:1006A000311107C08FEF9FEF90935201809351015A
:1006B0008CC0E0915B01F0915C010580F681E02D3A
:1006C0000680F781E02D428153818417950728F435
:1006D000509352014093510178C0AF014E5F5F4F7C
:1006E000A285B38564817581E680F780EB01FD8288
:1006F000EC82C681D7817B836A8311966D917C9150
:1007000012976417750721F41296DC93CE93119714
:10071000138612863C9131503C933C91A489B58953
:100720001097F9F066857785E088F188EB01FD8206
:10073000EC82C089D1897B836A831196ED90FC900D
:100740001297BF01645F7F4FE616F70621F41296F9
:10075000DC93CE931197158A148A3C9131503C93C7
:100760003C91A68930919C013A1710F4A0939C010A
:100770001A9FD0011124BD0168587E4F7B01DB0117
:100780001196CD91DC911297D583C4836C817D81C4
:10079000778366836C817D81DB0113965C934E9336
:1007A00012975D834C83F386E286E70138813F5FD1
:1007B0003883A0919D01B0919E01468956963C9147
:1007C000431708F468CF21E066CFE0919D01F091D6
:1007D0009E01E689D9E0ED9FF0011124E858FE4F13
:1007E0008081823040F021E006C0809148018F5F17
:1007F0008093480120E080914901811103C02223A8
:1008000009F466C080915301882321F081E0809330
:1008100049015EC010924901A0919D01B0919E01D5
:10082000E0919D01F0919E012D913C918789908DE1
:1008300082179307A8F080919D0190919E0180916D
:100840009D0190919E01259A2D9A2FEF67EA71E6FE
:10085000215060407040E1F700C000001D9AF5CFC4
:1008600080919C0169E001C08150482F50E0649F55
:100870009001659F300D1124F901E858FE4F9081D9
:10088000992391F3A181B28112960D90BC91A02D74
:10089000B283A18325583E4FA217B30731F41296B5
:1008A0002D913C9113973283218399E0949FF0011D
:1008B000959FF00D1124E858FE4F0180F281E02D44
:1008C0002681378130939E0120939D0180939C0166
:1008D000A0919D01B0919E01CD91CDBFDD91DEBF74
:1008E000FF91EF91DF91CF91BF91AF919F918F9148
:1008F0007F916F915F914F913F912F911F910F9138
:10090000FF90EF90DF90CF90BF90AF909F908F902F
:100910007F906F905F904F903F902F901F900F901F
:100920000FBE0F900895FC01DB010FB6F8940F92F3
:100930004091560150915701818192812D913C91B6
:1009400011972F3F6FEF3607F1F0709158016081DA
:10095000761719F048175907C0F4481B590B42176E
:10096000530770F4241B350B2D933C938091580151
:10097000808380915601909157019283818303C0B7
:100980001D921C9202C080E001C081E00F900FBE5A
:100990000895809153018F5F8093530108950E94C1
:1009A000D1021895CF93DF93FC01A085B185828198
:1009B000938124813581EC013D832C83C481D581D1
:1009C0009B838A8311968D919C9112978E179F0716
:1009D00021F41296DC93CE931197118610868C9198
:1009E00081508C938C91DF91CF910895CF93DF93B9
:1009F0009C01FB01DC011196CD91DC911297D38310
:100A0000C2838C819D81958384838C819D81DC014F
:100A100013967C936E9312977D836C833187208726
:100A2000F90180818F5F8083DF91CF9108950F93CB
:100A30001F93CF93DF93DC011596ED91FC911697F0
:100A4000C681D7818E01045F1F4FC8010E94D20466
:100A500080915301811114C00A501109C8010E94EC
:100A6000D2049E8980919C01891710F490939C0177
:100A7000B9E09B9FC0011124B80188589E4F03C064
:100A8000B8018FE691E00E94F604E0919D01F0919B
:100A90009E019E898689891720F481E0809349010F
:100AA00001C080E0DF91CF911F910F910895EF92E7
:100AB000FF920F931F93CF93DF93EC010FB6F8943F
:100AC0000F921E8D7C0181E1E80EF11C01E01116F0
:100AD0005CF48989882341F0C7010E9417058111C0
:100AE000009349011150F3CF8FEF8E8F0F900FBEFF
:100AF0000FB6F8940F921D8D7E0188E0E80EF11C70
:100B000001E011165CF48885882341F0C7010E943A
:100B100017058111009349011150F3CF8FEF8D8F8D
:100B20000F900FBEDF91CF911F910F91FF90EF902B
:100B300008950F920FB6F8940F921F9211242F92DE
:100B40003F924F925F926F927F928F929F92AF925D
:100B5000BF92CF92DF92EF92FF920F931F932F934A
:100B60003F934F935F936F937F938F939F93AF9335
:100B7000BF93CF93DF93EF93FF93A0919D01B0912B
:100B80009E010DB60D920EB60D92809153018823F1
:100B900021F081E0809349015EC010924901A0914B
:100BA0009D01B0919E01E0919D01F0919E012D91DA
:100BB0003C918789908D82179307A8F080919D01C1
:100BC00090919E0180919D0190919E01259A2D9A70
:100BD0002FEF87EA91E6215080409040E1F700C076
:100BE00000001D9AF5CF80919C0169E001C0815001
:100BF000482F50E0649F9001659F300D1124F9014A
:100C0000E858FE4F9081992391F3A181B281129609
:100C10000D90BC91A02DB283A18325583E4FA21701
:100C2000B30731F412962D913C91139732832183AF
:100C300099E0949FF001959FF00D1124E858FE4F24
:100C40000180F281E02D2681378130939E0120932F
:100C50009D0180939C01A0919D01B0919E01CD9139
:100C6000CDBFDD91DEBFFF91EF91DF91CF91BF91BD
:100C7000AF919F918F917F916F915F914F913F9134
:100C80002F911F910F91FF90EF90DF90CF90BF9029
:100C9000AF909F908F907F906F905F904F903F901C
:100CA0002F901F900F900FBE0F9008958F929F92DC
:100CB000AF92BF92CF92DF92EF92FF920F931F936A
:100CC000CF93DF930FB6F8940F9280915301815028
:100CD0008093530180915301882311F080E0F2C08A
:100CE00080919F018823D1F3C0E0D0E029E0F22E6B
:100CF000EE24E39480916F01882351F1E091740117
:100D0000F0917501C681D781CE010C960E94D20464
:100D10008E010E5F1F4FC8010E94D2049E898091F0
:100D20009C01891710F490939C01F99EC001112435
:100D3000B80188589E4F0E94F604E0919D01F09101
:100D40009E019E8986899817A8F2E0924901D2CF28
:100D5000CD2B11F00E948A00E0904801EE2009F4AA
:100D6000A9C089E0B82EAA24A394CC24CA94DC2C70
:100D70008091530181118CC0C0915601D0915701CF
:100D80002196D0935701C09356012097B9F48091D2
:100D90005B0190915C012091590130915A0130938F
:100DA0005C0120935B0190935A01809359018091DB
:100DB00058018F5F809358010E948A0080915101F1
:100DC00090915201F12CC817D90708F451C0E09155
:100DD0005B01F0915C018081811105C0D0925201CC
:100DE000C092510145C0E0915B01F0915C0105802A
:100DF000F681E02D06811781D80112968D919C9184
:100E00001397C817D90728F4909352018093510182
:100E10002FC04801B2E08B0E911CC4010E94D20485
:100E2000F80184899589892B21F0C8010C960E94CC
:100E3000D204D80156968C9190919C01981710F489
:100E400080939C01B89EC0011124B40188589E4F24
:100E50000E94F604E0919D01F0919E01D801569602
:100E60009C918689981708F4B2CFFF24F394AFCFF2
:100E7000E0919D01F0919E01E689BE9EF001112452
:100E8000E858FE4F8081823048F0FF24F39406C07A
:100E9000809148018F5F80934801F12C8091490136
:100EA000811101C0F110A0924901EA94E11060CFD4
:100EB0001092480180914901882309F40FCF0E94C4
:100EC000990581E00F900FBEDF91CF911F910F9197
:100ED000FF90EF90DF90CF90BF90AF909F908F905A
:100EE00008950F931F93CF93DF938C01FB018081B3
:100EF00091818F3F2FEF920721F4E801AF81B885F0
:100F00000EC0D801139612962D913C911397E901CA
:100F1000488159818417950710F0D901F4CF1296B2
:100F20008D919C91139793838283EC01FD83EC83D5
:100F3000B583A4831396FC93EE93129711870087D1
:100F4000F80180818F5F8083DF91CF911F910F9196
:100F50000895EF92FF920F931F93CF93DF93E09149
:100F60004F01F09150018081882369F10580F6815D
:100F7000E02D00811181C681D7817E0182E0E80EDB
:100F8000F11CC7010E94D204E989FA89CE010995B2
:100F90008E85813021F72C853D85200F311F02176A
:100FA000130760F43B832A83D987C887B7018091F0
:100FB0004F01909150010E947107D1CFB801CE012D
:100FC0000E94140DCCCF80914D0190914E019093D1
:100FD000500180934F01F0934E01E0934D01DF915A
:100FE000CF911F910F91FF90EF900895FC017383B3
:100FF0006283918780874617570778F0421B530B0F
:101000008485958548175907C8F4BF016E5F7F4FE7
:1010100080914D0190914E010DC04217530718F475
:101020006217730758F4BF016E5F7F4F80914F01C5
:10103000909150010E94710780E0089581E0089529
:10104000EF92FF920F931F93CF93DF931F92CDB731
:10105000DEB77C01009156011091570180919D01EE
:1010600090919E01029669830E94D20469818FEF5C
:10107000E816F80699F4662389F060919D01709155
:101080009E016E5F7F4F8DE591E00F90DF91CF91D4
:101090001F910F91FF90EF900C94F604E00EF11E5B
:1010A000E0919D01F0919E01F382E28260919D01A9
:1010B00070919E01E016F10678F4809159019091AB
:1010C0005A016E5F7F4F0F90DF91CF911F910F916B
:1010D000FF90EF900C94710780915B0190915C01FF
:1010E0006E5F7F4F0E947107809151019091520174
:1010F000E816F90620F4F0925201E09251010F90A7
:10110000DF91CF911F910F91FF90EF900895CF93B2
:10111000DF9300D0CDB7DEB7009719F40E94990590
:101120000DC089839A830E94C90460E089819A81F5
:101130000E9420080E945606882381F30F900F908A
:10114000DF91CF910895FC010396928381832FEF65
:101150003FEF348323839683858390878783108230
:101160000895CF93DF93009751F0EC010E94C904DA
:10117000CE010E94E30EDF91CF910C945606DF91D1
:10118000CF910895CF93DF93CDB7DEB72C970FB6ED
:10119000F894DEBF0FBECDBFE0914F01F09150013A
:1011A0008081FF24F394882339F0F12C0580F681A7
:1011B000E02D0081118102C000E010E00E94C9040E
:1011C0000E94BC026C0180914B0190914C01C816A9
:1011D000D90620F40E94A90781E001C080E0D092E6
:1011E0004C01C0924B01811175C0F11031C0C01685
:1011F000D106B0F10E945606E0914F01F0915001E6
:101200000580F681E02DE680F780C70102960E94F6
:10121000D204D7011E968C911E97813089F41C96BA
:101220006D917C911D97600F711F9801A601C701F8
:101230000E94F607882321F0B801C7010E94140D0F
:10124000D7015196ED91FC915297C7010995CCC0F9
:10125000E0914D01F0914E018081BB24B394811146
:10126000B12CE0905401F09055010FB6F8940F9214
:10127000F701858D8F3F09F4158ED7015E968C910D
:101280005E978F3F11F45E961C920F900FBEF70190
:10129000828D811115C060919D0170919E01645FE6
:1012A0007F4FC70141960E94F604B11004C0C801E7
:1012B0008C199D0902C08FEF9FEF6B2D0E942008B3
:1012C000C7010E9457050E94560681118DC00E94D9
:1012D00099058AC00E94560687C0911109C0809165
:1012E00058018E83809156019091570198878F8382
:1012F0000F900FBE0E94C9040FB6F8940F92D80148
:101300005D968C915D978F3F11F45D961C92F8016C
:10131000868D8F3F09F4168E0F900FBEBE01675F5A
:101320007F4FCE0106960E9493048111D8C0C80158
:101330000E94C602882309F4CCC0E984FA84609133
:101340009D0170919E01645F7F4FC6010E947107ED
:1013500061E0C7010E942008C8010E9457050E9451
:101360005606882309F4B2C091E00FB6F8940F92A4
:10137000F801F28CFF2009F4A1C0448D411140C056
:10138000FA94F801F28E8085811154C00F900FBE3F
:10139000C980C7FC29C00C811D81D8011A968D9186
:1013A0009C911B97892B21F0C80102960E94D204C0
:1013B0000E94BC02AC0180914B0190914C014817F6
:1013C000590730F44B875C870E94A9075C854B85E1
:1013D00050934C0140934B018C2DCC0C990BAA0BD4
:1013E000BB0B8A30910580F1009154011091550199
:1013F0001A86198690E06801B1E1CB0ED11CB5CFF9
:1014000050E086819781840F951F97838683228180
:1014100033818217930720F080819181978386839F
:10142000D80116966D917C911797CE0101960E9476
:101430007B0FA6CFC80108960E941705882309F4E0
:10144000A5CF0E949905A2CFFC01EC5CFF4F0C9444
:10145000480EEA80FB80F801648575856E0D7F1D5E
:101460009701C8010E94F607882309F4BDCFD8016F
:101470005196ED91FC915297C8010995F801868526
:10148000813009F0B1CF84859585B701680F791F48
:10149000C8010E94140DA8CF6A817B81D8011D96D6
:1014A0007C936E931C97640F751F9A01C8010E946C
:1014B000F6079ACFC8010E94B10896CF29853A85D0
:1014C000232B09F00ACF0F900FBE66CE0E9499051C
:1014D0004BCFC8010E9457050E94560645CFC80150
:1014E0000E9457050E945606C8010E94C602882322
:1014F00009F43ACF51CE0F931F93CF93DF9300D0CF
:10150000CDB7DEB789839A830E94C90489819A8105
:101510000E944E0E8C010E9456060115110569F4B9
:10152000259A2D9A2FEF80E792E02150804090403D
:10153000E1F700C000001D9AF5CFC8010F900F9091
:10154000DF91CF911F910F910895AF92BF92CF92EB
:10155000DF92EF92FF920F931F93CF93DF9300D010
:1015600000D01F92CDB7DEB78C017B011D821C829B
:1015700090E0580188E0A80EB11C0FB6F8940F92C5
:10158000F801228D838D281708F06DC0D28C448D10
:1015900041113FC080819181892B09F052C0F8012F
:1015A000E280F380E114F10411F480E02EC0F70131
:1015B00082A1815082A3268991A12917B1F38111BB
:1015C000F4CF5701F2E0AF0EB11CC5010E94D20466
:1015D000F70191A1968B492F50E024E030E0241BC5
:1015E000350B3587248780919C01891710F49093DF
:1015F0009C0129E0249FC001259F900D1124B50175
:1016000088589E4F0E94F60481E0F80113821282EE
:1016100019C050E0B701F801848195810E947B0FC9
:10162000F801248D84819581820F911D9583848397
:10163000228133818217930720F0808191819583E5
:10164000848380E0D394F801D28E9189992321F08C
:10165000C80141960E94170581110E9499050F90BB
:101660000FBE81E060C02C813D81232B19F40F90C7
:101670000FBE58C0911109C0809158018983809193
:101680005601909157019B838A830F900FBE0E9451
:10169000C9040FB6F8940F92F801858D8F3F09F4B5
:1016A000158EF801868D8F3F09F4168E0F900FBEB0
:1016B000BE016C5F7F4FCE0101960E9493048111A1
:1016C0002CC00FB6F8940F92F801928D838D0F9075
:1016D0000FBE98131CC0CC80DD8020919D013091FD
:1016E0009E01B901645F7F4FC5010E94710761E0EF
:1016F000C6010E942008C8010E9457050E94560694
:10170000882311F091E039CF0E949905FBCFC801E1
:101710000E9457050E945606F5CFC8010E94570542
:101720000E94560680E00F900F900F900F900F9040
:10173000DF91CF911F910F91FF90EF90DF90CF90AD
:10174000BF90AF9008957F928F929F92AF92BF9279
:10175000CF92DF92EF92FF920F931F93CF93DF937D
:10176000982EC92E762E872EEA01D22ECA010E940B
:101770007B0A5C01892B09F448C188E290E00E9451
:101780007B0A7C010097D9F0DC015896BC92AE929E
:101790005797AE0165EA70E0C5010E94840F21975A
:1017A000D7015796ED91FC915897EC0FFD1FB701AB
:1017B000675E7F4FA72DB82DCD01089607C0C501E4
:1017C0000E94B10822C1A817B90749F09D014D91A7
:1017D000EB014993BE01E90128812111F4CFD70122
:1017E00090961C922D2D243008F023E0E7012E8BDB
:1017F00029A31AA21B861A861D8A1C8AF986E886E6
:1018000084E090E0821B91099D878C87FB8AEA8A9D
:101810001BA21CA21DA21EA21FA291E19083DF01A8
:10182000119782E28C93119723E32C9311979C924A
:101830001197CC9211971C92119720E82C93119735
:101840001C92119722E02C93119723E02C9311976F
:1018500024E02C93119725E02C93119726E02C93EC
:10186000119727E02C93119728E02C93119729E0EA
:101870002C93119720E12C9311979C93119792E14F
:101880009C93119793E19C93119794E19C931197EA
:1018900095E19C93119796E19C93119797E19C9306
:1018A000119798E19C93119799E19C93119790E27D
:1018B0009C93119791E29C9311978C93119783E2DB
:1018C0008C9311971C9211971C92119786E28C931E
:1018D000119787E28C93119788E28C93119789E294
:1018E0008C93119780E38C93119781E38C93B69737
:1018F000F983E8830115110519F0F801F182E082FE
:101900000FB6F8940F9280919F018F5F80939F0193
:1019100080919D0190919E01892BD1F5F0929E01BD
:10192000E0929D0180919F01813009F043C088E7DA
:1019300091E00E94A30881E891E00E94A3088AE850
:1019400091E00E94A30883E991E00E94A30888EC3B
:1019500091E00E94A3088FEB91E00E94A3088FE61C
:1019600091E00E94A30886E691E00E94A3088DE51D
:1019700091E00E94A30888EC91E090935C01809331
:101980005B018FEB91E090935A018093590112C053
:101990008091D20181110EC0E0919D01F0919E01D4
:1019A0009689D70156968C91891720F0F0929E0166
:1019B000E0929D018091D1018F5F8093D101E70179
:1019C0008E8990919C01981710F480939C01D9E026
:1019D0008D9FC0011124B7016E5F7F4F88589E4FC5
:1019E0000E94F6040F900FBE8091D201882359F017
:1019F000E0919D01F0919E019689F70186899817E3
:101A000010F40E94990581E001C08FEFDF91CF9122
:101A10001F910F91FF90EF90DF90CF90BF90AF900C
:101A20009F908F907F900895CF93DF9300D000D048
:101A30001F92CDB7DEB79C01809154019091550162
:101A4000009761F019827B836A833D832C83209108
:101A5000D201222329F02091530102C080E005C069
:101A6000BE016F5F7F4F0E94A50A0F900F900F90ED
:101A70000F900F90DF91CF910895789484B5826094
:101A800084BD84B5816084BD85B5826085BD85B522
:101A9000816085BD80916E00816080936E001092A0
:101AA000810080918100826080938100809181001B
:101AB00081608093810080918000816080938000AC
:101AC0008091B10084608093B1008091B00081600A
:101AD0008093B00080917A00846080937A00809136
:101AE0007A00826080937A0080917A00816080938E
:101AF0007A0080917A00806880937A001092C10009
:101B00000E94970104EB11E020E040EC50E062E31A
:101B100071E084E691E00E94A30B813009F0AFC030
:101B20000FB6F8940F928091540190915501892B32
:101B300009F04BC089EA91E00E94A30880EA91E095
:101B40000E94A30889EA91E09093500180934F018D
:101B500080EA91E090934E0180934D0181E590E001
:101B60000E947B0AEC01009761F14F96998388836C
:101B70008AE08B8F85E08C8F0FB6F8940F922881C6
:101B800039819B8D4C8D949FC0011124B901680F40
:101B9000791F7B836A831A8E3D832C83841B910972
:101BA000820F931F9F838E838FEF8D8F8E8FCE0139
:101BB00008960E94A308CE0141960E94A3080F90A8
:101BC0000FBED0935501C09354010F900FBE80916A
:101BD000540190915501892B09F451C002EB11E099
:101BE00023E045E550E067E371E082EC98E00E9475
:101BF000A30B813009F043C0F8942FEF3FEF3093EF
:101C00005201209351018093D201109257011092FA
:101C10005601A89590EC88E10FB6F894A8958093AA
:101C200060000FBE90936000A0919D01B0919E0155
:101C3000CD91CDBFDD91DEBFFF91EF91DF91CF91CF
:101C4000BF91AF919F918F917F916F915F914F91D4
:101C50003F912F911F910F91FF90EF90DF90CF90C8
:101C6000BF90AF909F908F907F906F905F904F90BC
:101C70003F902F901F900F900FBE0F9008950E94DD
:101C80009701C0E0D0E02097F1F30E940000FBCF65
:101C9000EE0FFF1F0590F491E02D0994CF93DF9391
:101CA0008230910510F482E090E0E091D501F0914E
:101CB000D60120E030E0C0E0D0E0309711F1408163
:101CC000518148175907C0F04817590761F48281BC
:101CD0009381209719F09B838A832BC09093D60120
:101CE0008093D50126C02115310519F042175307FD
:101CF00018F49A01BE01DF01EF010280F381E02DAB
:101D0000DCCF2115310509F1281B390B24303105B1
:101D100090F412968D919C9113976115710521F0A5
:101D2000FB019383828304C09093D6018093D501F5
:101D3000FD01329644C0FD01E20FF31F81939193A0
:101D4000225031092D933C933AC02091D301309118
:101D5000D401232B41F420910201309103013093EF
:101D6000D4012093D301209100013091010121156C
:101D7000310541F42DB73EB7409104015091050162
:101D8000241B350BE091D301F091D401E217F30746
:101D9000A0F42E1B3F0B2817390778F0AC014E5FDB
:101DA0005F4F2417350748F04E0F5F1F5093D40143
:101DB0004093D3018193919302C0E0E0F0E0CF0122
:101DC000DF91CF9108950F931F93CF93DF930097E7
:101DD00009F48CC0FC013297138212820091D50164
:101DE0001091D6010115110581F420813181820FF6
:101DF000931F2091D3013091D4012817390779F529
:101E0000F093D401E093D30171C0D80140E050E0D9
:101E1000AE17BF0750F412962D913C911397AD0168
:101E20002115310509F1D901F3CF9D01DA01338381
:101E3000228360817181860F971F8217930769F44F
:101E4000EC0128813981260F371F2E5F3F4F3183E8
:101E500020838A819B8193838283452B29F4F0938D
:101E6000D601E093D50142C01396FC93EE931297EE
:101E7000ED01499159919E01240F351FE217F30797
:101E800071F480819181840F951F029611969C9325
:101E90008E938281938113969C938E931297E0E0A8
:101EA000F0E0D80112968D919C911397009719F04C
:101EB000F8018C01F6CF8D919C9198012E5F3F4FD8
:101EC000820F931F2091D3013091D4012817390735
:101ED00069F4309729F41092D6011092D50102C00E
:101EE000138212821093D4010093D301DF91CF911A
:101EF0001F910F910895FB01DC0102C001900D922A
:101F000041505040D8F70895DC0101C06D93415015
:0A1F10005040E0F70895F894FFCF69
:101F1A000000D701800008090A0B02030405436880
:101F2A0061766573005069736361724C65644469D4
:101F3A006E616D69636F005069736361724C6564A9
:101F4A00730049444C4500546D7220537663000077
:00000001FF
